:1000000090040020C90000002D0100002D01000017
:100010002D0100002D0100002D0100000000000056
:100020000000000000000000000000002D010000A2
:100030002D010000000000002D0100002D01000036
:10004000111200002D01000091090000B909000003
:10005000E90800003D0900002D0100002D0100000D
:100060002D0100002D0100002D0100002D010000D8
:100070002D0100002D010000F90100006D020000BB
:10008000E1020000550300002D0100002D010000D9
:100090002D0100002D0100002D0100002D010000A8
:1000A0002D0100002D0100002D0100002D01000098
:1000B00039120000C91300002D0100002D010000BD
:1000C00080B500AFBD4680BD80B582B000AF124B99
:1000D0007B60124B3B6007E03B681A1D3A607A6810
:1000E000111D796012681A603A680D4B9A42F3D379
:1000F0000C4B3B6004E03B681A1D3A6000221A601A
:100100003A68094B9A42F6D3FFF7DAFF00F0E6FBB4
:10011000BD4602B080BDC046801500000000002032
:1001200010000020100000209000002080B500AFDB
:10013000FEE7C04680B500AF03200E21012200F08B
:100140004FFCBD4680BDC04680B500AF02200021F7
:10015000002200F045FC0220002100F0ABFC002052
:10016000002100F0CDFCBD4680BDC04680B582B008
:1001700000AFFB1D03221A70112000F0F3FCFB1DE1
:100180001B78181C01210022202300F01DF9FB1D03
:100190001B78181C002100F061FBFB1D1B78181C4C
:1001A000002100F07BFBFB1D1B78181C012100F0D7
:1001B0002DFBBD4602B080BD80B582B002AF1E20CF
:1001C00000F0D0FC022300930020002180220323B2
:1001D00001F046F8002001F0CBF8BD4680BDC046D6
:1001E00080B500AFFFF7A6FFFFF7AEFFFFF7BEFF3A
:1001F000FFF7E2FFBD4680BD80B500AF194B1B681D
:100200001B0C1A1C01231340DBB2012B0FD1154B21
:100210001A68802149020A431A60134B5B68002B5D
:1002200005D0114B5A68104B9B68181C90470D4B1A
:10023000DB6BDB0A1A1C01231340DBB2012B0FD14D
:10024000084BDA6B802109010A43DA63064BDB684D
:10025000002B05D0044BDA68034B1B69181C904730
:10026000BD4680BD000003401000002080B500AFF7
:10027000194B1B681B0C1A1C01231340DBB2012B0A
:100280000FD1154B1A68802149020A431A60134B9B
:100290009B69002B05D0114B9A69104BDB69181C28
:1002A00090470D4BDB6BDB0A1A1C01231340DBB2BA
:1002B000012B0FD1084BDA6B802109010A43DA6365
:1002C000064B1B6A002B05D0044B1A6A034B5B6A72
:1002D000181C9047BD4680BD004003401000002020
:1002E00080B500AF194B1B681B0C1A1C012313406F
:1002F000DBB2012B0FD1154B1A68802149020A434A
:100300001A60134BDB6A002B05D0114BDA6A104BD5
:100310001B6B181C90470D4BDB6BDB0A1A1C01236F
:100320001340DBB2012B0FD1084BDA6B802109019E
:100330000A43DA63064B5B6B002B05D0044B5A6B08
:10034000034B9B6B181C9047BD4680BD00001340BB
:100350001000002080B500AF194B1B681B0C1A1C45
:1003600001231340DBB2012B0FD1154B1A688021FA
:1003700049020A431A60134B1B6C002B05D0114B2A
:100380001A6C104B5B6C181C90470D4BDB6BDB0A37
:100390001A1C01231340DBB2012B0FD1084BDA6B7F
:1003A000802109010A43DA63064B9B6C002B05D0C0
:1003B000044B9A6C034BDB6C181C9047BD4680BD08
:1003C000004013401000002090B585B000AF041C21
:1003D000081C111C3B60FB1D221C1A70BB1D021C5B
:1003E0001A707B1D0A1C1A70FB1D1A78D949131C40
:1003F0009B009B189B005B5C002B01D0D64BFFE160
:100400003B68002B02DD3B68202B01DDD34BF7E17D
:10041000FB1D1B78002B13D1D14B9A688021490119
:100420000A439A60A023DB05DA68802149010A4368
:10043000DA60A023DB05DA68CA490A40DA6042E0E4
:10044000FB1D1B78012B13D1C54B9A6880218901B4
:100450000A439A60A023DB05DA68802189010A43F8
:10046000DA60A023DB05DA68BF490A40DA602AE0D7
:10047000FB1D1B78022B13D1B94B9A688021C9014F
:100480000A439A60A023DB05DA688021C9010A4388
:10049000DA60A023DB05DA68B4490A40DA6012E0CA
:1004A000AF4B9A68802109020A439A60A023DB05BA
:1004B000DA68802109020A43DA60A023DB05DA68E2
:1004C000AB490A40DA6080235B02FB6006E0FB6810
:1004D0005A1EFA60002B01DCA64B91E1FB1D1A7835
:1004E000A54B9200D3581B681A1C01231340DBB2A2
:1004F000012BECD0FB1D1A789649131C9B009B180E
:100500009B0001225A54FB1D1A789249131C9B0030
:100510009B189B00CB1800225A60FB1D1A788D494E
:10052000131C9B009B189B00CB18083300221A60F9
:10053000FB1D1A788749131C9B009B189B00CB1846
:10054000083300225A60FB1D1A788249131C9B0055
:100550009B189B00CB18103300221A603B68202B9D
:1005600001D100233B60FB1D1A78834B9200D358C6
:100570003A68D2B2111C1F220A40D2B21F210A408F
:10058000D2001968F82081430A431A60BB1D1B780A
:10059000012B0AD1FB1D1A78774B9200D3581A68A9
:1005A0008021C9020A431A6008E0FB1D1A78724BC9
:1005B0009200D3581A6871490A401A60FB1D1A78D4
:1005C0006D4B9200D3589A6808210A439A607B1DAC
:1005D0001B78002B1BD1FB1D1A78674B9200D35858
:1005E0001A6867490A401A60FB1D1A78624B92002C
:1005F000D3581A6804218A431A60FB1D1A785E4B8F
:100600009200D3581A6802218A431A60F7E07B1DD2
:100610001B78012B1BD1FB1D1A78574B9200D35826
:100620001A6857490A401A60FB1D1A78524B92000B
:10063000D3581A6804210A431A60FB1D1A784E4BDE
:100640009200D3581A6802218A431A60D7E07B1DB2
:100650001B78022B1BD1FB1D1A78474B9200D358F5
:100660001A6847490A401A60FB1D1A78424B9200EB
:10067000D3581A6804218A431A60FB1D1A783E4B2E
:100680009200D3581A6802210A431A60B7E07B1D12
:100690001B78032B1BD1FB1D1A78374B9200D358C4
:1006A0001A6837490A401A60FB1D1A78324B9200CB
:1006B000D3581A6804210A431A60FB1D1A782E4B7E
:1006C0009200D3581A6802210A431A6097E07B1DF2
:1006D0001B78042B1CD1FB1D1A78274B9200D35892
:1006E0001A68802109010A431A60FB1D1A78224BFF
:1006F0009200D3581A6804218A431A60FB1D1A78A5
:100700001D4B9200D3581A6802218A431A6076E082
:100710007B1D1B78052B35D1FB1D1A78164B9200DB
:10072000D3581A68802109010A431A60FB1D1A7800
:10073000114B9200D3581A6804210A431A60FB1D1A
:100740001A780D4B9200D3581A6802218A431A6016
:1007500055E0C046100000200394FFFF0294FFFF05
:1007600000020050FFEFFFFFFFDFFFFFFFBFFFFFB3
:10077000FF7FFFFF0494FFFF00000020FFFFFBFF4F
:10078000FFF7FFFF7B1D1B78062B1CD1FB1D1A7882
:100790001D4B9200D3581A68802109010A431A6040
:1007A000FB1D1A78184B9200D3581A6804218A430B
:1007B0001A60FB1D1A78144B9200D3581A68022154
:1007C0000A431A601BE0FB1D1A780F4B9200D358A6
:1007D0001A68802109010A431A60FB1D1A780A4B26
:1007E0009200D3581A6804210A431A60FB1D1A7834
:1007F000054B9200D3581A6802210A431A6000235D
:10080000181CBD4605B090BD0000002080B582B028
:1008100000AF021CFB1D1A70BB1D0A1C1A70BB1D09
:100820001B78002B0AD1FB1D1A780A4B9200D35873
:100830001A688021C9000A431A6008E0FB1D1A7873
:10084000044B9200D3581A6803490A401A60BD4607
:1008500002B080BD00000020FFFBFFFF80B582B02A
:1008600000AF021CFB1D1A70BB1D0A1C1A70FB1D79
:100870001A78094B9200D358BA1D127801210A4008
:10088000D2B201210A4012019968102081430A4323
:100890009A60BD4602B080BD0000002080B582B0E5
:1008A00000AF021CFB1D1A70BB1D0A1C1A70FB1D39
:1008B0001A78094B9200D358BA1D127801210A40C8
:1008C000D2B201210A4092009968042081430A4370
:1008D0009A60BD4602B080BD0000002080B500AF28
:1008E000FFF77EFCFEE7C04680B582B000AF0F4B3D
:1008F0001B6A7B600E4B1B6A3B603B680D4A1340D2
:100900003B600A4B7A681A62094B3A681A620A4BD2
:100910001B68002B06D0084B1B6879683A68081CD6
:10092000111C9847BD4602B080BDC0460040005033
:1009300040400050FF3FFFFF6000002080B584B0C2
:1009400000AF0F4B1B6AFB600E4B1B6ABB600E4B6C
:100950001B6A7B600A4BFA681A620A4BBA681A6211
:10096000094B7A681A62094B1B68002B05D0074BAC
:100970001B68F868B9687A689847BD4604B080BDBE
:1009800080400050C04000500041005064000020F2
:1009900080B500AF064B8022D2011A62054B1B685E
:1009A000002B02D0034B1B689847BD4680BDC04654
:1009B000404000506800002080B500AF064B802208
:1009C00012021A62054B1B68002B02D0034B1B68F6
:1009D0009847BD4680BDC046404000506C00002096
:1009E00080B584B000AF3960111CFB1D021C1A7069
:1009F000BB1D0A1C1A703B68002B02DB3B68102BE6
:100A000001DD2A4B4EE0FB1D1B789B01284A9446D2
:100A10006344FB60BB1D1B78002B07D0BB1D1B78FC
:100A2000012B03D0BB1D1B78022B29D1FB68FA6870
:100A300012683968490003208840011CC9430A40F4
:100A40001A60BB1D1B78012B0AD1FB68FA6812687B
:100A50003968490001208840011C0A431A600EE0F1
:100A6000BB1D1B78022B0AD1FB68FA681268396833
:100A7000490002208840011C0A431A6011E010E07E
:100A8000BB1D1B78032B0AD1FB68FA681268396812
:100A9000490003208840011C0A431A6001E0034B0F
:100AA00000E00023181CBD4604B080BD0189FFFF93
:100AB0000040005080B584B000AF021C3960FB1DBF
:100AC0001A70FB1D1B789B010B4A94466344FB6024
:100AD000FB68FA681268012039688840011C0A43E3
:100AE0001A60064B1A6820210A431A600023181C5A
:100AF000BD4604B080BDC046144000508041005047
:100B000080B582B000AF78600A1CFB1C1A707B684D
:100B10000F2B01D9114B1CE0114B7A68D2B2111C7A
:100B20000F220A40D2B20F210A4019680F208143D8
:100B30000A431A600A4BFA1C127801210A40D2B209
:100B400001210A4012011968102081430A431A60EA
:100B50000023181CBD4602B080BDC0460189FFFFBE
:100B60008041005080B584B000AF021CFB1D1A709C
:100B7000FB1D1B783D2B00D927E39A00DA4BD318D5
:100B80001B689F46D94B00221A60D94B00221A607D
:100B9000D84B00221A60D84B00221A60D74B002293
:100BA0001A6014E3D24BD24A1268802149010A43E9
:100BB0001A60D34BD24A12688021C9000A431A60D6
:100BC000CF4BCF4A1268CF490A401A60FFE2C74BA9
:100BD000C64A1268C02189000A431A60F7E2C34B73
:100BE000C24A1268C02109010A431A60C44BC44AB0
:100BF0001268C4490A401A60E9E2BE4BBD4A126855
:100C00000F210A431A60B94BB84A126880210902C1
:100C10000A431A60BA4BBA4A1268F82189000A439B
:100C20001A60D4E2B44BB44A1268C0210A431A6075
:100C3000CDE2FB1D1B78062B04D10F23FB180622E7
:100C40001A7003E00F23FB180E221A70A94BA94A51
:100C500012680F217918097803208840011C0A4383
:100C60001A60A74BA64A1268A6490A401A60AEE26B
:100C7000A04BA04A12680F210A431A60A04BA04A59
:100C80001268A1490A401A60A1E2994B984A126879
:100C90008021C9000A431A60994B994A12680121C0
:100CA0000A431A6093E2934B924A126830210A4336
:100CB0001A608CE28F4B8F4A1268F02109010A43B7
:100CC0001A608F4B8E4A12688E490A401A607EE283
:100CD000874B874A1268802189000A431A60884B33
:100CE000874A126802210A431A6070E2814B814AE6
:100CF0001268C02189010A431A6068E27E4B7E4A6D
:100D000012680F210A431A6061E2784B774A126831
:100D100080210A431A607A4B794A126804210A43F7
:100D20001A60774B764A126876490A401A604EE29A
:100D3000714B714A126830210A431A6047E26E4BC8
:100D40006D4A1268F02109010A431A603FE2684BBC
:100D5000674A12688021C9010A431A60684B684AD1
:100D6000126808210A431A6031E2634B624A126832
:100D7000C02189010A431A6029E25E4B5D4A12686C
:100D80000F210A431A6022E25B4B5B4A1268022180
:100D90000A431A601BE2584B574A126804210A435F
:100DA0001A6014E2564B564A126804218A431A60AC
:100DB000534B534A126853490A401A604B4B4B4AF3
:100DC0001268F91D0978173901208840011C0A436F
:100DD0001A60FCE14A4B4A4A126808218A431A60A9
:100DE000434B434A1268F91D0978113901208840A4
:100DF000011C0A431A60EAE13D4B3D4A126880211A
:100E000049000A431A60E2E1394B394A12688021ED
:100E100089000A431A603A4B394A126802218A4310
:100E20001A60D4E1324B324A12688021C9000A4369
:100E30001A60334B324A126801218A431A60C6E1B4
:100E40002B4B2B4A1268802109010A431A602C4B54
:100E50002B4A126810218A431A60B8E1244B244AB5
:100E60001268802109020A431A60254B244A12683D
:100E7000802149040A431A60A9E1204B1F4A1268E5
:100E800020210A431A601E4B1D4A126880218904E2
:100E90000A431A609BE1164B154A126804210A4363
:100EA0001A60174B164A12688021C9040A431A6057
:100EB0008DE10F4B0E4A126808210A431A60104B4D
:100EC0000F4A1268802109050A431A607FE1FB1D61
:100ED0001B78282B1AD9FB1D1B782B2B16D80F2318
:100EE000FB1800221A7015E0881400003000005032
:100EF00034000050380000503C00005040000050CA
:100F000050000050FFF7FFFF1FFEFFFF0F23FB18ED
:100F100004221A70FB1D1B78292B03D0FB1D1B78A4
:100F20002C2B11D1AC4BAC4A12680F2179180978DF
:100F30000F208840011C0A431A60A84BA74A126878
:100F4000A7490A401A602EE0FB1D1B782A2B03D00C
:100F5000FB1D1B782D2B0BD19F4B9F4A12680F2135
:100F60007918097803208840011C0A431A601AE0A6
:100F7000FB1D1B782B2B03D0FB1D1B782E2B12D1B6
:100F8000954B954A12680F21791809780231032090
:100F90008840011C0A431A60904B904A126890499D
:100FA0000A401A6013E112E18E4B8E4A1268C0218A
:100FB00009020A431A600AE1FB1D1B78302B07D196
:100FC000894B894A1268C02189010A431A600AE0E4
:100FD000854B854A1268F91D097828390120884017
:100FE000011C0A431A607D4B7C4A12687C490A4006
:100FF0001A60ECE0FB1D1B78312B13D17A4B7A4A37
:101000001268C02109020A431A60744B734A1268BD
:1010100076490A401A60714B704A126870490A405A
:101020001A601CE0704B704A1268F91D0978283963
:1010300001208840011C0A431A60FB1D1B78362BD7
:1010400006D1664B654A126865490A401A6006E097
:10105000624B624A126865490A401A60B7E0B6E01E
:10106000FB1D1B78322B13D15B4B5B4A126880212E
:1010700009010A431A60594B584A126810210A4361
:101080001A605B4B5A4A126820210A431A6018E022
:10109000FB1D1B78382B0DD14F4B4F4A1268802116
:1010A00009010A431A604D4B4C4A126810210A4349
:1010B0001A6006E04E4B4E4A126820210A431A601D
:1010C00085E084E0FB1D1B78332B06D1484B484A52
:1010D000126803210A431A6011E0FB1D1B783A2BAA
:1010E00006D1434B424A126801210A431A6006E0C6
:1010F0003F4B3F4A126802210A431A6067E066E0EC
:10110000354B354A12680C210A431A60334B334A77
:101110001268C021C9010A431A60334B324A12686F
:1011200034490A431A602D4B2C4A1268FF210904E6
:101130000A431A60FB1D1B783C2B17D1264B264A0D
:1011400012680C218A431A60244B244A12682A49E7
:101150000A401A60244B244A126828490A401A603F
:101160001E4B1E4A126826490A401A601B4B1B4A36
:101170001268C02149010A431A60224B214A1268B1
:10118000802149000A431A60174B174A1268C02190
:1011900009010A431A60104B0F4A1268C0210A4322
:1011A0001A60114B104A1268C0210A431A60154B8D
:1011B000144A126814490A431A60074B064A126817
:1011C000C02189010A431A6001E0104B00E00023AE
:1011D000181CBD4604B080BD3400005050000050C3
:1011E000FFF7FFFF3C00005030000050FFFDFFFF05
:1011F000400000503E700000FF9FFFFFC18FFFFFC7
:10120000FFFF00FF38000050C0C000000189FFFF51
:1012100080B500AFA023DB059A6910210A439A61CB
:10122000044B1B68002B02D0024B1B689847BD463D
:1012300080BDC0467000002080B500AF064B1A6824
:1012400040210A431A60054B1B68002B02D0034B58
:101250001B689847BD4680BD000200507400002006
:10126000B0B582B000AF051C0C1C101C191CFB1D76
:101270002A1C1A70BB1D221C1A707B1D021C1A70BE
:101280003B1D0A1C1A70A023DB05DA688021490582
:101290000A43DA60A023DB05DA6830490A40DA60E5
:1012A0002F4B3A1D127803210A40D2B203210A4083
:1012B000920059690C2081430A435A61284B182235
:1012C000BA181278FF210A40120499692548014092
:1012D0000A439A61224B9A68802149050A439A6021
:1012E000214B1A6A01210A431A62FB1D1B78002B4D
:1012F00005D11D4B1A6A1D490A401A6205E01A4BB6
:101300001A6A8021C9000A431A62BB1D1B78002B90
:1013100005D1154B1A6A0C218A431A6210E0BB1DD5
:101320001B78012B07D1104B1A6A0C218A43082124
:101330000A431A6204E00C4B1A6A0C210A431A622F
:10134000094B7A1D1278FF210A40596AFF20814318
:101350000A435A62BD4602B0B0BDC046FFFFFFEF70
:1013600000020050FFFF00FF00000E40FFFBFFFFE8
:1013700080B582B000AF021CFB1D1A70104BFA1D25
:10138000127803210A40D2B203210A401202596A9C
:101390000C4801400A435A62FB1D1B78022B06D100
:1013A000A023DB05DA6901210A43DA6105E0A02305
:1013B000DB05DA6901218A43DA61BD4602B080BDEE
:1013C00000000E40FFFCFFFF80B500AF284B1B6BF9
:1013D0001A1C01231340DBB2012B11D1254B1B68D2
:1013E000002B05D0234B1A68234B1B68181C904711
:1013F000224B224A126807218A4301210A431A60BC
:101400001B4B1B6B5B081A1C01231340DBB2012B27
:1014100011D11B4B1B68002B05D0194B1A68164BBA
:101420005B68181C9047154B144A126807218A43C1
:1014300002210A431A600E4B1B6B9B081A1C0123E6
:101440001340DBB2012B11D10E4B1B68002B05D0D2
:101450000C4B1A68084B9B68181C9047074B074AAF
:10146000126807218A4304210A431A60BD4680BDE1
:1014700000000E40780000208400002030000E4064
:101480007C00002080000020840B0000A40B0000E2
:10149000CE0B0000DE0B0000FA0B0000240C000055
:1014A000320C0000320C0000700C00008A0C0000AE
:1014B000A60C0000B40C0000D00C0000EC0C0000E6
:1014C000FC0C00000A0D0000300D00003E0D000075
:1014D0004E0D00006A0D00007A0D0000880D00001E
:1014E000960D0000BC0D0000B00D0000B00D000016
:1014F000B00D0000B00D0000B00D0000B00D0000F8
:10150000A40D0000D40D0000E00D0000F80D000057
:10151000080E0000240E0000400E00005C0E0000CB
:101520007A0E0000960E0000B20E0000CE0E0000F3
:10153000CE0E0000CE0E0000CE0E0000CE0E00003B
:10154000CE0E0000A80F0000B80F0000F40F00003E
:1015500060100000C4100000B80F0000B80F0000B9
:10156000F40F0000F40F0000601000006010000095
:10157000C4100000C410000034110000001100006D
:1015800000000340004003400000134000401340AF
:00000001FF
