:10000000B00A0020C90000002D0100002D010000F1
:100010002D0100002D0100002D0100000000000056
:100020000000000000000000000000002D010000A2
:100030002D010000000000002D0100002D01000036
:10004000451200002D010000210A0000490A0000AD
:1000500079090000CD0900002D0100002D010000EC
:100060002D0100002D0100002D0100002D010000D8
:100070002D0100002D010000C90100003D0200001B
:10008000B1020000250300002D0100002D01000039
:100090002D0100002D0100002D0100002D010000A8
:1000A0002D0100002D0100002D0100002D01000098
:1000B0006D120000E11300002D0100002D01000071
:1000C00080B500AFBD4680BD80B582B000AF124B99
:1000D0007B60124B3B6007E03B681A1D3A607A6810
:1000E000111D796012681A603A680D4B9A42F3D379
:1000F0000C4B3B6004E03B681A1D3A6000221A601A
:100100003A68094B9A42F6D3FFF7DAFF00F0CEFBCC
:10011000BD4602B080BDC046041D000000000020A6
:100120002C0600202C060020AC06002080B500AF75
:10013000FEE7C04680B500AF03200E21012200F08B
:1001400097FCBD4680BDC04680B582B000AFFB1DA8
:1001500003221A70112000F01FFDFB1D1B78181CD4
:1001600001210022202300F017F9FB1D1B78181C29
:10017000002100F05BFBFB1D1B78181C002100F028
:1001800075FBFB1D1B78181C012100F027FBBD46E9
:1001900002B080BD80B582B002AF172000F0FCFC39
:1001A00002230093002000210122032301F090F894
:1001B000BD4680BD80B500AFFFF7BCFFFFF7C4FFB1
:1001C000FFF7E8FFBD4680BD80B500AF194B1B6847
:1001D0001B0C1A1C01231340DBB2012B0FD1154B52
:1001E0001A68802149020A431A60134B5B68002B8E
:1001F00005D0114B5A68104B9B68181C90470D4B4B
:10020000DB6BDB0A1A1C01231340DBB2012B0FD17D
:10021000084BDA6B802109010A43DA63064BDB687D
:10022000002B05D0044BDA68034B1B69181C904760
:10023000BD4680BD000003402C06002080B500AF05
:10024000194B1B681B0C1A1C01231340DBB2012B3A
:100250000FD1154B1A68802149020A431A60134BCB
:100260009B69002B05D0114B9A69104BDB69181C58
:1002700090470D4BDB6BDB0A1A1C01231340DBB2EA
:10028000012B0FD1084BDA6B802109010A43DA6395
:10029000064B1B6A002B05D0044B1A6A034B5B6AA2
:1002A000181C9047BD4680BD004003402C0600202E
:1002B00080B500AF194B1B681B0C1A1C012313409F
:1002C000DBB2012B0FD1154B1A68802149020A437A
:1002D0001A60134BDB6A002B05D0114BDA6A104B06
:1002E0001B6B181C90470D4BDB6BDB0A1A1C0123A0
:1002F0001340DBB2012B0FD1084BDA6B80210901CF
:100300000A43DA63064B5B6B002B05D0044B5A6B38
:10031000034B9B6B181C9047BD4680BD00001340EB
:100320002C06002080B500AF194B1B681B0C1A1C53
:1003300001231340DBB2012B0FD1154B1A6880212A
:1003400049020A431A60134B1B6C002B05D0114B5A
:100350001A6C104B5B6C181C90470D4BDB6BDB0A67
:100360001A1C01231340DBB2012B0FD1084BDA6BAF
:10037000802109010A43DA63064B9B6C002B05D0F0
:10038000044B9A6C034BDB6C181C9047BD4680BD38
:10039000004013402C06002090B585B000AF041C2F
:1003A000081C111C3B60FB1D221C1A70BB1D021C8B
:1003B0001A707B1D0A1C1A70FB1D1A78D949131C70
:1003C0009B009B189B005B5C002B01D0D64BFFE190
:1003D0003B68002B02DD3B68202B01DDD34BF7E1AE
:1003E000FB1D1B78002B13D1D14B9A68802149014A
:1003F0000A439A60A023DB05DA68802149010A4399
:10040000DA60A023DB05DA68CA490A40DA6042E014
:10041000FB1D1B78012B13D1C54B9A6880218901E4
:100420000A439A60A023DB05DA68802189010A4328
:10043000DA60A023DB05DA68BF490A40DA602AE007
:10044000FB1D1B78022B13D1B94B9A688021C9017F
:100450000A439A60A023DB05DA688021C9010A43B8
:10046000DA60A023DB05DA68B4490A40DA6012E0FA
:10047000AF4B9A68802109020A439A60A023DB05EA
:10048000DA68802109020A43DA60A023DB05DA6812
:10049000AB490A40DA6080235B02FB6006E0FB6840
:1004A0005A1EFA60002B01DCA64B91E1FB1D1A7865
:1004B000A54B9200D3581B681A1C01231340DBB2D2
:1004C000012BECD0FB1D1A789649131C9B009B183E
:1004D0009B0001225A54FB1D1A789249131C9B0061
:1004E0009B189B00CB1800225A60FB1D1A788D497F
:1004F000131C9B009B189B00CB18083300221A602A
:10050000FB1D1A788749131C9B009B189B00CB1876
:10051000083300225A60FB1D1A788249131C9B0085
:100520009B189B00CB18103300221A603B68202BCD
:1005300001D100233B60FB1D1A78834B9200D358F6
:100540003A68D2B2111C1F220A40D2B21F210A40BF
:10055000D2001968F82081430A431A60BB1D1B783A
:10056000012B0AD1FB1D1A78774B9200D3581A68D9
:100570008021C9020A431A6008E0FB1D1A78724BF9
:100580009200D3581A6871490A401A60FB1D1A7804
:100590006D4B9200D3589A6808210A439A607B1DDC
:1005A0001B78002B1BD1FB1D1A78674B9200D35888
:1005B0001A6867490A401A60FB1D1A78624B92005C
:1005C000D3581A6804218A431A60FB1D1A785E4BBF
:1005D0009200D3581A6802218A431A60F7E07B1D03
:1005E0001B78012B1BD1FB1D1A78574B9200D35857
:1005F0001A6857490A401A60FB1D1A78524B92003C
:10060000D3581A6804210A431A60FB1D1A784E4B0E
:100610009200D3581A6802218A431A60D7E07B1DE2
:100620001B78022B1BD1FB1D1A78474B9200D35825
:100630001A6847490A401A60FB1D1A78424B92001B
:10064000D3581A6804218A431A60FB1D1A783E4B5E
:100650009200D3581A6802210A431A60B7E07B1D42
:100660001B78032B1BD1FB1D1A78374B9200D358F4
:100670001A6837490A401A60FB1D1A78324B9200FB
:10068000D3581A6804210A431A60FB1D1A782E4BAE
:100690009200D3581A6802210A431A6097E07B1D22
:1006A0001B78042B1CD1FB1D1A78274B9200D358C2
:1006B0001A68802109010A431A60FB1D1A78224B2F
:1006C0009200D3581A6804218A431A60FB1D1A78D5
:1006D0001D4B9200D3581A6802218A431A6076E0B3
:1006E0007B1D1B78052B35D1FB1D1A78164B92000C
:1006F000D3581A68802109010A431A60FB1D1A7831
:10070000114B9200D3581A6804210A431A60FB1D4A
:100710001A780D4B9200D3581A6802218A431A6046
:1007200055E0C0462C0600200394FFFF0294FFFF13
:1007300000020050FFEFFFFFFFDFFFFFFFBFFFFFE3
:10074000FF7FFFFF0494FFFF1C000020FFFFFBFF63
:10075000FFF7FFFF7B1D1B78062B1CD1FB1D1A78B2
:100760001D4B9200D3581A68802109010A431A6070
:10077000FB1D1A78184B9200D3581A6804218A433B
:100780001A60FB1D1A78144B9200D3581A68022184
:100790000A431A601BE0FB1D1A780F4B9200D358D6
:1007A0001A68802109010A431A60FB1D1A780A4B56
:1007B0009200D3581A6804210A431A60FB1D1A7864
:1007C000054B9200D3581A6802210A431A6000238D
:1007D000181CBD4605B090BD1C00002080B582B03D
:1007E00000AF021CFB1D1A70BB1D0A1C1A70BB1D3A
:1007F0001B78002B0AD1FB1D1A780A4B9200D358A4
:100800001A688021C9000A431A6008E0FB1D1A78A3
:10081000044B9200D3581A6803490A401A60BD4637
:1008200002B080BD1C000020FFFBFFFF80B582B03E
:1008300000AF021CFB1D1A70BB1D0A1C1A70FB1DA9
:100840001A78094B9200D358BA1D127801210A4038
:10085000D2B201210A4012019968102081430A4353
:100860009A60BD4602B080BD1C00002080B582B0F9
:1008700000AF021CFB1D1A70BB1D0A1C1A70FB1D69
:100880001A78094B9200D358BA1D127801210A40F8
:10089000D2B201210A4092009968042081430A43A0
:1008A0009A60BD4602B080BD1C00002080B582B0B9
:1008B00000AFFFF77FFC00F059FE03200E2100F08F
:1008C00041F901F08FF82A4B0020191C01F068F85B
:1008D00000F0E6FD002000F0F9FD031C7B607B6862
:1008E000181CFA23990001F09BF8031CDBB230338B
:1008F000DBB2002007211A1C00F0DAFF7B68181C0D
:10090000FA23990001F072F90B1C181C642101F004
:1009100087F8031CDBB23033DBB2002008211A1C3D
:1009200000F0C6FF7B68181C642101F05FF90B1C06
:10093000181C0A2101F074F8031CDBB23033DBB25F
:10094000002009211A1C00F0B3FF7B68181C0A2143
:1009500001F04CF90B1CDBB23033DBB200200A2172
:100960001A1C00F0A5FF034B181C00F093FCA8E72D
:10097000041C0000A086010080B582B000AF0F4BC0
:100980001B6A7B600E4B1B6A3B603B680D4A134041
:100990003B600A4B7A681A62094B3A681A620A4B42
:1009A0001B68002B06D0084B1B6879683A68081C46
:1009B000111C9847BD4602B080BDC04600400050A3
:1009C00040400050FF3FFFFF7C06002080B584B010
:1009D00000AF0F4B1B6AFB600E4B1B6ABB600E4BDC
:1009E0001B6A7B600A4BFA681A620A4BBA681A6281
:1009F000094B7A681A62094B1B68002B05D0074B1C
:100A00001B68F868B9687A689847BD4604B080BD2D
:100A100080400050C040005000410050800600203F
:100A200080B500AF064B8022D2011A62054B1B68CD
:100A3000002B02D0034B1B689847BD4680BDC046C3
:100A4000404000508406002080B500AF064B802255
:100A500012021A62054B1B68002B02D0034B1B6865
:100A60009847BD4680BDC0464040005088060020E3
:100A700080B584B000AF3960111CFB1D021C1A70D8
:100A8000BB1D0A1C1A703B68002B02DB3B68102B55
:100A900001DD2A4B4EE0FB1D1B789B01284A944642
:100AA0006344FB60BB1D1B78002B07D0BB1D1B786C
:100AB000012B03D0BB1D1B78022B29D1FB68FA68E0
:100AC00012683968490003208840011CC9430A4064
:100AD0001A60BB1D1B78012B0AD1FB68FA681268EB
:100AE0003968490001208840011C0A431A600EE061
:100AF000BB1D1B78022B0AD1FB68FA6812683968A3
:100B0000490002208840011C0A431A6011E010E0ED
:100B1000BB1D1B78032B0AD1FB68FA681268396881
:100B2000490003208840011C0A431A6001E0034B7E
:100B300000E00023181CBD4604B080BD0189FFFF02
:100B40000040005080B584B000AF021C3960FB1D2E
:100B50001A703B68002B02DB3B68102B01DD0C4B4D
:100B600011E0FB1D1B789B010A4A94466344FB601D
:100B7000FB689B6801213A6891400A1CD2431A40E5
:100B8000FB689A600023181CBD4604B080BDC046B7
:100B90000189FFFF0040005080B584B000AF021C07
:100BA000FB1D1A70FB1D1B783D2B00D927E39A0013
:100BB000DA4BD3181B689F46D94B00221A60D94BD9
:100BC00000221A60D84B00221A60D84B00221A600B
:100BD000D74B00221A6014E3D24BD24A126880210C
:100BE00049010A431A60D34BD24A12688021C900D6
:100BF0000A431A60CF4BCF4A1268CF490A401A60A5
:100C0000FFE2C74BC64A1268C02189000A431A6036
:100C1000F7E2C34BC24A1268C02109010A431A60B5
:100C2000C44BC44A1268C4490A401A60E9E2BE4B88
:100C3000BD4A12680F210A431A60B94BB84A1268BC
:100C4000802109020A431A60BA4BBA4A1268F82195
:100C500089000A431A60D4E2B44BB44A1268C02136
:100C60000A431A60CDE2FB1D1B78062B04D10F232B
:100C7000FB1806221A7003E00F23FB180E221A70CD
:100C8000A94BA94A12680F217918097803208840D6
:100C9000011C0A431A60A74BA64A1268A6490A40DB
:100CA0001A60AEE2A04BA04A12680F210A431A60F4
:100CB000A04BA04A1268A1490A401A60A1E2994BD0
:100CC000984A12688021C9000A431A60994B994AD0
:100CD000126801210A431A6093E2934B924A126808
:100CE00030210A431A608CE28F4B8F4A1268F02140
:100CF00009010A431A608F4B8E4A12688E490A40D6
:100D00001A607EE2874B874A1268802189000A4375
:100D10001A60884B874A126802210A431A6070E2FF
:100D2000814B814A1268C02189010A431A6068E236
:100D30007E4B7E4A12680F210A431A6061E2784BAB
:100D4000774A126880210A431A607A4B794A1268FE
:100D500004210A431A60774B764A126876490A40A2
:100D60001A604EE2714B714A126830210A431A60D0
:100D700047E26E4B6D4A1268F02109010A431A607E
:100D80003FE2684B674A12688021C9010A431A6032
:100D9000684B684A126808210A431A6031E2634BC3
:100DA000624A1268C02189010A431A6029E25E4B37
:100DB0005D4A12680F210A431A6022E25B4B5B4ACC
:100DC000126802210A431A601BE2584B574A126804
:100DD00004210A431A6014E2564B564A1268042151
:100DE0008A431A60534B534A126853490A401A60A7
:100DF0004B4B4B4A1268F91D09781739012088407E
:100E0000011C0A431A60FCE14A4B4A4A1268082155
:100E10008A431A60434B434A1268F91D0978113915
:100E200001208840011C0A431A60EAE13D4B3D4A1B
:100E30001268802149000A431A60E2E1394B394ABD
:100E40001268802189000A431A603A4B394A1268B5
:100E500002218A431A60D4E1324B324A126880215F
:100E6000C9000A431A60334B324A126801218A438F
:100E70001A60C6E12B4B2B4A1268802109010A43F4
:100E80001A602C4B2B4A126810218A431A60B8E171
:100E9000244B244A1268802109020A431A60254B18
:100EA000244A1268802149040A431A60A9E1204BB0
:100EB0001F4A126820210A431A601E4B1D4A1268FD
:100EC000802189040A431A609BE1164B154A126877
:100ED00004210A431A60174B164A12688021C9047C
:100EE0000A431A608DE10F4B0E4A126808210A432B
:100EF0001A60104B0F4A1268802109050A431A60D4
:100F00007FE1FB1D1B78282B1AD9FB1D1B782B2B8F
:100F100016D80F23FB1800221A7015E00C1C0000D5
:100F20003000005034000050380000503C000050A9
:100F30004000005050000050FFF7FFFF1FFEFFFF72
:100F40000F23FB1804221A70FB1D1B78292B03D0DA
:100F5000FB1D1B782C2B11D1AC4BAC4A12680F2116
:100F6000791809780F208840011C0A431A60A84BA1
:100F7000A74A1268A7490A401A602EE0FB1D1B7899
:100F80002A2B03D0FB1D1B782D2B0BD19F4B9F4A87
:100F900012680F217918097803208840011C0A4340
:100FA0001A601AE0FB1D1B782B2B03D0FB1D1B784E
:100FB0002E2B12D1954B954A12680F21791809787A
:100FC000023103208840011C0A431A60904B904A6A
:100FD000126890490A401A6013E112E18E4B8E4A62
:100FE0001268C02109020A431A600AE1FB1D1B783E
:100FF000302B07D1894B894A1268C02189010A43E5
:101000001A600AE0854B854A1268F91D097828396B
:1010100001208840011C0A431A607D4B7C4A1268FB
:101020007C490A401A60ECE0FB1D1B78312B13D180
:101030007A4B7A4A1268C02109020A431A60744B3B
:10104000734A126876490A401A60714B704A1268F6
:1010500070490A401A601CE0704B704A1268F91D12
:101060000978283901208840011C0A431A60FB1DB9
:101070001B78362B06D1664B654A126865490A40D3
:101080001A6006E0624B624A126865490A401A60BB
:10109000B7E0B6E0FB1D1B78322B13D15B4B5B4AEC
:1010A0001268802109010A431A60594B584A126894
:1010B00010210A431A605B4B5A4A126820210A43E6
:1010C0001A6018E0FB1D1B78382B0DD14F4B4F4A8F
:1010D0001268802109010A431A604D4B4C4A12687C
:1010E00010210A431A6006E04E4B4E4A1268202136
:1010F0000A431A6085E084E0FB1D1B78332B06D180
:10110000484B484A126803210A431A6011E0FB1D4C
:101110001B783A2B06D1434B424A126801210A43FD
:101120001A6006E03F4B3F4A126802210A431A60E8
:1011300067E066E0354B354A12680C210A431A60B5
:10114000334B334A1268C021C9010A431A60334B3A
:10115000324A126834490A431A602D4B2C4A1268ED
:10116000FF2109040A431A60FB1D1B783C2B17D191
:10117000264B264A12680C218A431A60244B244AC3
:1011800012682A490A401A60244B244A12682849E6
:101190000A401A601E4B1E4A126826490A401A600D
:1011A0001B4B1B4A1268C02149010A431A60224B9B
:1011B000214A1268802149000A431A60174B174AD6
:1011C0001268C02109010A431A60104B0F4A1268C5
:1011D000C0210A431A60114B104A1268C0210A4309
:1011E0001A60154B144A126814490A431A60074BD7
:1011F000064A1268C02189010A431A6001E0104BB7
:1012000000E00023181CBD4604B080BD340000502F
:1012100050000050FFF7FFFF3C000050300000502E
:10122000FFFDFFFF400000503E700000FF9FFFFFEA
:10123000C18FFFFFFFFF00FF38000050C0C000005B
:101240000189FFFF80B500AFA023DB059A6910215B
:101250000A439A61044B1B68002B02D0024B1B68A7
:101260009847BD4680BDC0468C06002080B500AFC3
:10127000064B1A6840210A431A60054B1B68002B75
:1012800002D0034B1B689847BD4680BD000200504A
:101290009006002080B582B000AF78600A4A0B4B00
:1012A0001B6879684B435360074B00229A60064BDA
:1012B00005221A60C046044B1A6880235B02134063
:1012C000F9D0BD4602B080BD10E000E0040000206F
:1012D000B0B582B000AF051C0C1C101C191CFB1D06
:1012E0002A1C1A70BB1D221C1A707B1D021C1A704E
:1012F0003B1D0A1C1A70A023DB05DA688021490512
:101300000A43DA60A023DB05DA6830490A40DA6074
:101310002F4B3A1D127803210A40D2B203210A4012
:10132000920059690C2081430A435A61284B1822C4
:10133000BA181278FF210A40120499692548014021
:101340000A439A61224B9A68802149050A439A60B0
:10135000214B1A6A01210A431A62FB1D1B78002BDC
:1013600005D11D4B1A6A1D490A401A6205E01A4B45
:101370001A6A8021C9000A431A62BB1D1B78002B20
:1013800005D1154B1A6A0C218A431A6210E0BB1D65
:101390001B78012B07D1104B1A6A0C218A430821B4
:1013A0000A431A6204E00C4B1A6A0C210A431A62BF
:1013B000094B7A1D1278FF210A40596AFF208143A8
:1013C0000A435A62BD4602B0B0BDC046FFFFFFEF00
:1013D00000020050FFFF00FF00000E40FFFBFFFF78
:1013E00080B500AF284B1B6B1A1C01231340DBB2E6
:1013F000012B11D1254B1B68002B05D0234B1A68FC
:10140000234B1B68181C9047224B224A1268072165
:101410008A4301210A431A601B4B1B6B5B081A1C91
:1014200001231340DBB2012B11D11B4B1B68002B96
:1014300005D0194B1A68164B5B68181C9047154B62
:10144000144A126807218A4302210A431A600E4B8C
:101450001B6B9B081A1C01231340DBB2012B11D11B
:101460000E4B1B68002B05D00C4B1A68084B9B6871
:10147000181C9047074B074A126807218A4304212A
:101480000A431A60BD4680BD00000E40940600204D
:10149000A006002030000E40980600209C06002088
:1014A00080B500AF074B074A126807218A43012124
:1014B0000A431A60044B1A6A802109010A431A621E
:1014C000BD4680BD30000E4000000E4080B584B0A7
:1014D00000AF021CFB1D1A70224B1B6A9B0A1A1CD0
:1014E00001231340DBB2002B0CD11E4AFB1D1B78DD
:1014F0009B009B581A1C00239A43131C9BB21B058C
:101500001B0D2BE0174B1B6ADB0FDBB2002B0AD144
:10151000144AFB1D1B789B009B581A1C00239A43FE
:10152000131C9BB21AE00F49FB1D1A780E23FB18FF
:1015300092005258111C002291430A1C1A800E235B
:10154000FB181B881BB2002B05DA0E23FB181B8827
:10155000054A134302E00E23FB181B88181CBD46E6
:1015600004B080BD00000E400000FFFF80B500AF5A
:10157000714B9A68802109020A439A60A023DB0517
:10158000DA68802109020A43DA60A023DB05DA6801
:101590006A490A40DA60A023DB05DA6B8021490042
:1015A0000A43DA63A023DB05DA6B802189000A4352
:1015B000DA63A023DB05DA6B802109010A43DA63D1
:1015C0005F4BDB681A68802109010A431A605C4B93
:1015D000DB681A68F8218A4348210A431A60584B8D
:1015E000DB681A6804210A431A60554BDB685A68A5
:1015F000120C120403210A435A60514BDB689A68AB
:1016000003218A4301210A439A604D4BDB68EB2298
:101610001A624B4BDB681A6801210A431A60C04604
:10162000474BDB681B681A1C01231340DBB2012BFC
:10163000F6D0434BDB689A6803218A439A60404B9B
:10164000DB689A6803218A4301210A439A603C4B74
:10165000DB6881221A623A4BDB681A6801210A436F
:101660001A60C046364BDB681B681A1C0123134006
:10167000DBB2012BF6D0324BDB68A0221A62304B72
:10168000DB681A6801210A431A60C0462C4BDB68EC
:101690001B681A1C01231340DBB2012BF6D0284B28
:1016A000DB689A6803218A439A60254BDB689A6855
:1016B00003218A4301210A439A60214BDB68C0223F
:1016C0001A621F4BDB681A6801210A431A60C04680
:1016D0001B4BDB681B681A1C01231340DBB2012B78
:1016E000F6D0174BDB689A6803218A439A60144B43
:1016F000DB689A6803218A4301210A439A60104BF0
:10170000DB68AF221A620E4BDB681A6801210A43BC
:101710001A60C0460A4BDB681B681A1C0123134081
:10172000DBB2012BF6D0064BDB689A6803218A43B3
:101730009A60BD4680BDC04600020050FF7FFFFF9B
:101740001C06002080B582B000AF021CFB1D1A7081
:10175000144BDB689A6803218A4301210A439A608B
:10176000104BDB68FA1D1278802149000A431A6287
:101770000C4BDB681A6801210A431A60C046094B0A
:10178000DB681B681A1C01231340DBB2012BF6D067
:10179000044BDB689A6803218A439A60BD4602B015
:1017A00080BDC0461C06002080B582B000AF021C80
:1017B000FB1D1A70BB1D0A1C1A703C4BDB689A6833
:1017C00003218A4301210A439A60384BDB68FA1DE2
:1017D0001278502149420A43D2B21A62334BDB6875
:1017E0001A6801210A431A60C046304BDB681B6847
:1017F0001A1C01231340DBB2012BF6D02B4BDB6804
:101800009A6803218A439A60284BDB689A6803210F
:101810008A4301210A439A60244BDB68BA1D12787F
:101820001209D2B2111C0F220A4010210A431A6277
:101830001E4BDB681A6801210A431A60C0461B4B25
:10184000DB681B681A1C01231340DBB2012BF6D0A6
:10185000164BDB689A6803218A439A60134BDB6856
:101860009A6803218A4301210A439A600F4BDB687F
:10187000BA1D12780F210A401A620C4BDB681A68F5
:1018800001210A431A60C046084BDB681B681A1C1A
:1018900001231340DBB2012BF6D0044BDB689A68BE
:1018A00003218A439A60BD4602B080BD1C06002019
:1018B00090B587B000AF041C081C111CFB1D221C36
:1018C0001A70BB1D021C1A707B1D0A1C1A700023A3
:1018D0007B6100233B617B1D1B78203B1B013B612F
:1018E00000237B6124E0FB1D1B78DB18D9B2BB1DF4
:1018F0001B78082252425343DAB27B69DBB2D31A17
:10190000DBB27F3BDBB2081C191CFFF74DFF3A69C5
:101910007B69D2180F23FB1820498A5C1A700F23A9
:10192000FB181B78181CFFF70DFF7B6901337B61E7
:101930007B69072BD7DD00237B6128E0FB1D1B782B
:10194000DB18DBB20133D9B2BB1D1B78082252422F
:101950005343DAB27B69DBB2D31ADBB27F3BDBB233
:10196000081C191CFFF720FF3A697B69D31808335C
:101970001A1C0F23FB1809498A5C1A700F23FB18E5
:101980001B78181CFFF7DEFE7B6901337B617B69E6
:10199000072BD3DDBD4607B090BDC0462C0000200C
:1019A00080B584B000AF021C3960FB1D1A700023A3
:1019B000FB60FB68D9B23B685A1C3A601A78FB1D81
:1019C0001B78181CFFF774FFFB680133FB60FB6892
:1019D0000F2B00DD03E03B681B78002BE9D1BD46EF
:1019E00004B080BD80B582B000AF00237B600020D2
:1019F0000021FFF7D9FE00237B6005E00020FFF700
:101A0000A1FE7B6801337B607B68044A9342F5DD6D
:101A10000F20FFF797FEBD4602B080BD1F040000F7
:101A200003460B437FD4002243088B4274D303093F
:101A30008B425FD3030A8B4244D3030B8B4228D3E0
:101A4000030C8B420DD3FF22090212BA030C8B4206
:101A500002D31212090265D0030B8B4219D300E0A6
:101A6000090AC30B8B4201D3CB03C01A5241830B2B
:101A70008B4201D38B03C01A5241430B8B4201D3DB
:101A80004B03C01A5241030B8B4201D30B03C01A04
:101A90005241C30A8B4201D3CB02C01A5241830A7E
:101AA0008B4201D38B02C01A5241430A8B4201D3AD
:101AB0004B02C01A5241030A8B4201D30B02C01AD7
:101AC0005241CDD2C3098B4201D3CB01C01A52413E
:101AD00083098B4201D38B01C01A524143098B42C7
:101AE00001D34B01C01A524103098B4201D30B01B0
:101AF000C01A5241C3088B4201D3CB00C01A5241D5
:101B000083088B4201D38B00C01A524143088B4299
:101B100001D34B00C01A5241411A00D20146524132
:101B2000104670475DE0CA0F00D04942031000D351
:101B30004042534000229C4603098B422DD3030AA6
:101B40008B4212D3FC22890112BA030A8B420CD3B6
:101B5000890192118B4208D3890192118B4204D3DF
:101B600089013AD0921100E08909C3098B4201D35F
:101B7000CB01C01A524183098B4201D38B01C01A99
:101B8000524143098B4201D34B01C01A5241030910
:101B90008B4201D30B01C01A5241C3088B4201D3BF
:101BA000CB00C01A524183088B4201D38B00C01A6C
:101BB0005241D9D243088B4201D34B00C01A524143
:101BC000411A00D20146634652415B10104601D3D0
:101BD0004042002B00D54942704763465B1000D35A
:101BE000404201B5002000F00BF802BD0029F8D0FA
:101BF00003B5FFF715FF0EBC4243891A1847C046CC
:101C00007047C0464C4452203D200000B80B0000F5
:101C1000D80B0000020C0000120C00002E0C00007B
:101C2000580C0000660C0000660C0000A40C0000BC
:101C3000BE0C0000DA0C0000E80C0000040D0000EF
:101C4000200D0000300D00003E0D0000640D00006E
:101C5000720D0000820D00009E0D0000AE0D000010
:101C6000BC0D0000CA0D0000F00D0000E40D0000E6
:101C7000E40D0000E40D0000E40D0000E40D0000A0
:101C8000E40D0000D80D0000080E0000140E000046
:101C90002C0E00003C0E0000580E0000740E0000D8
:101CA000900E0000AE0E0000CA0E0000E60E00000E
:101CB000020F0000020F0000020F0000020F0000E0
:101CC000020F0000020F0000DC0F0000EC0F00000C
:101CD0002810000094100000F8100000EC0F000025
:101CE000EC0F0000281000002810000094100000E5
:101CF00094100000F8100000F810000068110000B7
:041D0000341100009A
:101D04000080510116000000001BB7000080000095
:101D140000805101102700000080510100000340A1
:101D24000040034000001340004013400000000046
:101D3400000000000000000000000000F0000000AF
:101D440000000000CF0000000000000000000000C0
:101D540000000000F00000F000000000000000C0DF
:101D640030C03000C839CF390F090100E01010F835
:101D740010106000304142FF42443800C02010E09F
:101D840020E0180001C2310C7388443800E01010C0
:101D9400E00000007885828D70A29E420000000061
:101DA40000000000F000000000000000C030080443
:101DB400000000001F60800000000000040830C024
:101DC400000000000080601F000000000000000010
:101DD400000000004428FE284400000000000080A9
:101DE40000000000080808FF0808080000000000C0
:101DF40000000000B07000000000000000000000BF
:101E040000000000808080800000000000000000CE
:101E140000000000C0C0000000000000000080704E
:101E240000000000E01C030000000000C0201010AF
:101E340020C000003F408080403F000020F00000B0
:101E44000000000080FF80000000000060101010FF
:101E540020C00000C0A0908886C10000201010108F
:101E6400E00000008080828344380000000080602D
:101E7400F000000018161110FF10000000F0101000
:101E84001010000080818181423C000080402010BD
:101E9400101000003F428181423C0000701010107D
:101EA400907000000000E01C03000000C02010102F
:101EB40020C000003845828245380000C020101040
:101EC40020C0000083848848241F00000000000014
:101ED40000000000C3C3000000000000C0C00000F8
:101EE40000000000B07000000000000000000000CE
:101EF4000000000010282844448200000000000074
:101F0400000000008888888888888888000000008D
:101F1400000000008244442828100000E010101043
:101F240020C000000000D80601000000C02010906E
:101F34009010A0C03F408F90908F505F0000807041
:101F44008000000080F08F088FF0800010F01010E7
:101F54001020C00080FF828282453800C02010100B
:101F6400102070003F4080808080400010F01010EE
:101F74001060800080FF808080601F0010F01010CF
:101F84001010700080FF82828287E00010F0101031
:101F94001010700080FF820202070000C0201010A1
:101FA400207000003F408080847C040010F010000A
:101FB40010F0100080FF820282FF800010F01000F9
:101FC4000000000080FF800000000000000010F00E
:101FD400100000004080807F0000000010F010809E
:101FE4005030100080FF830CB0C0800010F010004F
:101FF4000000000080FF808080C0200010F080007E
:1020040080F0100080FF833C83FF800010F0C0004C
:1020140010F0100080FF800F30FF0000806010106F
:10202400106080001F60808080601F0010F010101E
:102034001020C00080FF840404020100E01804049E
:102044000418E000071820206098870010F0101092
:102054001020C00080FF840C34C28100C020101006
:1020640010207000E041828284483000301010F06B
:1020740010103000000080FF8000000010F01000FD
:1020840010F01000007F8080807F000010F01000AE
:1020940010F0100000011EE01E01000010F010C03E
:1020A40010F01000000FF00FF00F000010709000FF
:1020B4009070100080E0990699E080001070900004
:1020C40090701000000083FC83000000701010105A
:1020D40010D03000C0B088868180E000FC04040089
:1020E40000000000FF8080000000000070800000FD
:1020F4000000000000031CE0000000000404FC00D9
:10210400000000008080FF000000000000000000CC
:1021140000000000806018061860800000000000C5
:1021240000000000808080808080808000000000AB
:10213400000000002060408000000000000000005B
:102144000000000066918949FE80000010F0000044
:1021540000000000007F8181423C0000000000007C
:10216400000000003C428181814200000000001018
:10217400F00000003C4281817F80000000000000EC
:10218400000000003C4A89898A4C00000000E010ED
:10219400102000000181FF810100000080404040C8
:1021A4008040000053ACA4A4A340000010F0000041
:1021B4000000000080FF0101FE80000000B000006C
:1021C4000000000081FF800000000000000080CCBF
:1021D400000000004080807F0000000010F000003C
:1021E4000000000080FF9825C381000010F000006B
:1021F4000000000080FF80000000000000000000DC
:102204000000000081FE01FE01FE800000000000CD
:102214000000000081FE0101FE80000000000000BB
:10222400000000003C428181423C0000408040406C
:102234008000000080FFA020100F000000804040BC
:10224400804000000F1020A0FF800000000000006C
:102254000000000081FF8201010000000000000076
:1022640000000000E6498991926700000000C00068
:102274000000000001017F81814000000000000097
:1022840000000000017F80817F80000000000000CA
:1022940000000000010739C03907010000000000F8
:1022A40000000000011FE11CE11F0100000000000C
:1022B4000000000081E71818E781000040C04000DA
:1022C40040C0400080814638060100000000000044
:1022D40000000000C3A1918985C3000000F008003C
:1022E40000000000027D800000000000F0000000FB
:1022F40000000000FF0000000000000008F00000E3
:1023040000000000807D02000000000000000000CA
:1023140000000000C0202060C080806000000340F6
:0C23240000401340000013400040134034
:00000001FF
