:10000000180B0020E1050000450600004506000031
:1000100045060000450600004506000000000000FF
:100020000000000000000000000000004506000085
:1000300045060000000000004506000045060000DF
:10004000B91B000045060000451300006D130000B9
:100050009D120000F11200000D230000A1240000F9
:100060004506000045060000450600004506000064
:10007000C90000001501000081080000F50800001B
:1000800069090000DD090000450600004506000082
:100090004506000045060000450600004506000034
:1000A0004506000045060000450600004506000024
:1000B000B91D000081200000450600004506000033
:1000C00080B500AFBD4680BD80B582B000AF0D4B9E
:1000D0001B687B600C4B1B683B600C4B1B68002B48
:1000E00004D00A4B1B687A68101C9847084B1B68A1
:1000F000002B04D0064B1B683A68101C9847BD467D
:1001000002B080BD1C0005401C4015403006002098
:100110003806002080B582B000AF074B1B687B60BB
:10012000064B1B68002B04D0044B1B687A68101C1C
:100130009847BD4602B080BD1C0015403406002023
:1001400080B588B000AFF860B9607A607B68434AD8
:10015000944663447B61F868B96804F0A3FF031C0C
:100160001A1C0F231340022B12D87B695A6A3C4990
:100170000A405A627B695A6A3A490A405A62F868E8
:10018000B96804F08FFF031C1B09023BFB6158E0B8
:100190007B695A6A802189050A435A627B695A6AD7
:1001A000802149050A435A62F868B96804F07AFF69
:1001B000031C023BFB61FB692B4A934241DD7B69D7
:1001C0005A6A802189050A435A627B695A6A25491D
:1001D0000A405A620823BB6130E0F868B96804F04D
:1001E00061FF031C1A1CBB690133101C191C04F0AD
:1001F000DFFF0B1E022B1ED8BB69DBB21A1C0F23BC
:100200001340DAB27B690F210A401206596A174877
:1002100001400A435A62F868B96804F043FF031CBE
:100220001A1CBB690133101C191C04F03BFF031C92
:10023000023BFB6105E0BB690133BB61BB690F2B6E
:10024000CBDDFB699AB27B691204120C596A090C66
:1002500009040A435A62BD4608B080BD000005404B
:10026000FFFFFFDFFFFFFFEFFFFF0000FFFFFFF0DB
:1002700080B582B000AF00237B60184B9B691B0ADE
:100280001A1C0F231340DBB23B60144B5B691B0E3F
:100290001A1C03231340DBB2002B04D101F0A0FD94
:1002A000031C7B600FE00D4B5B691B0E1A1C0323C4
:1002B0001340DBB2012B04D101F09AFD031C7B60DB
:1002C00001E0074B7B603B6801337868191C04F040
:1002D000E9FE031C181CBD4602B080BD00020050A0
:1002E0000080510180B584B000AF786039607B68D0
:1002F000002B0BD07A6880235B039A4206D07A6881
:1003000082235B039A4201D0A94B4CE13B689B7965
:10031000002B11D03B689B79032B0DD03B689B7958
:10032000012B09D03B689B79052B05D03B689B7955
:10033000072B01D09F4B36E13B681B79002B0DD07A
:100340003B681B79012B09D03B681B79022B05D038
:100350003B681B79032B01D0974B24E13B685B7909
:10036000002B09D03B685B79012B05D03B685B799A
:10037000012B01D0914B16E13B68DB79002B19D0A2
:100380003B68DB79012B15D03B68DB79022B11D060
:100390003B68DB79032B0DD03B68DB79042B09D05C
:1003A0003B68DB79052B05D03B68DB79062B01D058
:1003B000834BF8E07B68002B13D1A023DB05DA68C0
:1003C000802149020A43DA60A023DB05DA687D490F
:1003D0000A40DA607C4B9A68802149020A439A609D
:1003E0002BE07A6880235B039A4213D1A023DB05BC
:1003F000DA68802189020A43DA60A023DB05DA6823
:1004000072490A40DA60704B9A68802189020A4377
:100410009A6012E0A023DB05DA688021C9020A4352
:10042000DA60A023DB05DA6869490A40DA60664BC6
:100430009A688021C9020A439A607B68654A94469B
:100440006344FB60FB689A6804210A439A60FB6876
:100450009A6802210A439A603B68DB791A1C0F23D1
:100460001340DAB2FB680F210A4012019968F020AC
:1004700081430A439A603B689B791A1C042313400A
:100480005A1E9341DAB2FB6801210A405201D96831
:10049000202081430A43DA603B689B791A1C0223BF
:1004A00013405A1E9341DAB2FB6801210A4012013F
:1004B000D968102081430A43DA603B689B791A1C93
:1004C000012313405A1E9341DAB2FB6801210A400E
:1004D000D200D968082081430A43DA603B681B795F
:1004E0001A1C03231340DAB2FB6803210A40D968BF
:1004F000032081430A43DA603B685B791A1C0123BD
:100500001340DAB2FB6801210A409200D968042046
:1005100081430A43DA603B681A7AFB68FF210A408C
:10052000196AFF2081430A431A62274B1B681A1C71
:1005300001231340DBB2002B05D0234B5A69264917
:100540000A405A6123E0204B1B6A1B0C1A1C012332
:100550001340DBB2002B08D11B4B5A691E490A40DD
:10056000802149040A435A6111E0174B1B689B081C
:100570001A1C01231340DBB2002B06D0124B5A6920
:10058000C02189040A435A6101E0144B0BE0FFF7D4
:100590006FFE011C3B681A687B68081C111C1A1C42
:1005A000FFF7CEFD0023181CBD4604B080BDC04639
:1005B0000298FFFF0398FFFF0498FFFF0598FFFFD5
:1005C0000698FFFFFFFFFEFF00020050FFFFFDFF48
:1005D000FFFFFBFF00000540FFFFFFFC0898FFFF47
:1005E00080B582B000AF124B7B60124B3B6007E0DE
:1005F0003B681A1D3A607A68111D796012681A60AA
:100600003A680D4B9A42F3D30C4B3B6004E03B68D5
:100610001A1D3A6000221A603A68094B9A42F6D3D2
:10062000FFF74EFD00F09EFDBD4602B080BDC04606
:10063000B8580000000000203006002030060020DE
:100640001807002080B500AFFEE7C04680B500AFB8
:1006500000200021032200F09DFE00200121032242
:1006600000F098FE00200221032200F093FE0020FB
:100670000321032200F08EFE00200421032200F05B
:1006800089FE00200521032200F084FEBD4680BDC6
:1006900080B58AB000AF02F0EFFE364B354A1268E3
:1006A000802149010A431A600020002103F0A4FEC2
:1006B0001423FB1800221A701423FB1800225A601E
:1006C0001423FB180022DA701423FB1804229A70FA
:1006D0001423FB1800225A701423FB180022DA603E
:1006E0001423FB1800229A602723FB1800221A709B
:1006F0001423FB180020191C03F096F80020012198
:1007000003F0E4FD0020012102F05CFF194B194ABF
:100710001268802189010A431A600120002103F038
:100720006BFE3B1D00221A703B1D00225A603B1DD0
:100730000022DA703B1D04229A703B1D00225A7081
:100740003B1D0022DA603B1D00229A602623FB1825
:1007500001221A703B1D0120191C03F065F80120CD
:10076000012103F0B3FD0120012102F02BFFBD4662
:100770000AB080BD3000005080B500AF03200E21CC
:10078000012200F007FEBD4680BDC04680B582B0A4
:1007900000AFFB1D03221A70112000F0B7FEFB1DF5
:1007A0001B78181C01210022202300F051F9FB1DA9
:1007B0001B78181C002100F095FBFB1D1B78181CF2
:1007C000002100F0AFFBFB1D1B78181C012100F07D
:1007D00061FBBD4602B080BD80B582B002AF17207C
:1007E00000F094FE02230093002000210122032345
:1007F00001F0BEFBBD4680BD80B586B000AF1723BB
:10080000FB1829221A7000233B61292000F07EFE8C
:100810003B1D962292011A603B1D03221A713B1D5B
:1008200000225A713B1D00229A713B1D0022DA7191
:100830003B1D00221A723A693B1D101C191CFFF760
:1008400051FDBD4606B080BD80B500AF022000213D
:10085000012200F09FFDBD4680BDC04680B500AFBF
:10086000FFF7F2FFFFF788FFFFF790FFFFF7B4FFF6
:10087000FFF7ECFEFFF70CFFFFF7BEFFBD4680BDA4
:1008800080B500AF194B1B681B0C1A1C01231340C9
:10089000DBB2012B0FD1154B1A68802149020A43A4
:1008A0001A60134B5B68002B05D0114B5A68104B34
:1008B0009B68181C90470D4BDB6BDB0A1A1C01234D
:1008C0001340DBB2012B0FD1084BDA6B80210901F9
:1008D0000A43DA63064BDB68002B05D0044BDA6869
:1008E000034B1B69181C9047BD4680BD00000340A8
:1008F0003C06002080B500AF194B1B681B0C1A1C6E
:1009000001231340DBB2012B0FD1154B1A68802154
:1009100049020A431A60134B9B69002B05D0114B07
:100920009A69104BDB69181C90470D4BDB6BDB0A97
:100930001A1C01231340DBB2012B0FD1084BDA6BD9
:10094000802109010A43DA63064B1B6A002B05D09C
:10095000044B1A6A034B5B6A181C9047BD4680BD66
:10096000004003403C06002080B500AF194B1B68D7
:100970001B0C1A1C01231340DBB2012B0FD1154BAA
:100980001A68802149020A431A60134BDB6A002B64
:1009900005D0114BDA6A104B1B6B181C90470D4B9E
:1009A000DB6BDB0A1A1C01231340DBB2012B0FD1D6
:1009B000084BDA6B802109010A43DA63064B5B6B53
:1009C000002B05D0044B5A6B034B9B6B181C9047B4
:1009D000BD4680BD000013403C06002080B500AF3E
:1009E000194B1B681B0C1A1C01231340DBB2012B93
:1009F0000FD1154B1A68802149020A431A60134B24
:100A00001B6C002B05D0114B1A6C104B5B6C181C27
:100A100090470D4BDB6BDB0A1A1C01231340DBB242
:100A2000012B0FD1084BDA6B802109010A43DA63ED
:100A3000064B9B6C002B05D0044B9A6C034BDB6C74
:100A4000181C9047BD4680BD004013403C06002066
:100A500090B585B000AF041C081C111C3B60FB1D49
:100A6000221C1A70BB1D021C1A707B1D0A1C1A70F6
:100A7000FB1D1A78D949131C9B009B189B005B5CDB
:100A8000002B01D0D64BFFE13B68002B02DD3B6819
:100A9000202B01DDD34BF7E1FB1D1B78002B13D17D
:100AA000D14B9A68802149010A439A60A023DB0553
:100AB000DA68802149010A43DA60A023DB05DA689D
:100AC000CA490A40DA6042E0FB1D1B78012B13D1B2
:100AD000C54B9A68802189010A439A60A023DB05EF
:100AE000DA68802189010A43DA60A023DB05DA682D
:100AF000BF490A40DA602AE0FB1D1B78022B13D1A4
:100B0000B94B9A688021C9010A439A60A023DB058A
:100B1000DA688021C9010A43DA60A023DB05DA68BC
:100B2000B4490A40DA6012E0AF4B9A6880210902AA
:100B30000A439A60A023DB05DA68802109020A4390
:100B4000DA60A023DB05DA68AB490A40DA6080236B
:100B50005B02FB6006E0FB685A1EFA60002B01DCBA
:100B6000A64B91E1FB1D1A78A54B9200D3581B6848
:100B70001A1C01231340DBB2012BECD0FB1D1A78A9
:100B80009649131C9B009B189B0001225A54FB1D85
:100B90001A789249131C9B009B189B00CB180022CB
:100BA0005A60FB1D1A788D49131C9B009B189B00F3
:100BB000CB18083300221A60FB1D1A788749131CD2
:100BC0009B009B189B00CB18083300225A60FB1D2A
:100BD0001A788249131C9B009B189B00CB1810337A
:100BE00000221A603B68202B01D100233B60FB1DD3
:100BF0001A78834B9200D3583A68D2B2111C1F2244
:100C00000A40D2B21F210A40D2001968F82081435D
:100C10000A431A60BB1D1B78012B0AD1FB1D1A78F1
:100C2000774B9200D3581A688021C9020A431A6090
:100C300008E0FB1D1A78724B9200D3581A6871496C
:100C40000A401A60FB1D1A786D4B9200D3589A68BF
:100C500008210A439A607B1D1B78002B1BD1FB1DCA
:100C60001A78674B9200D3581A6867490A401A608D
:100C7000FB1D1A78624B9200D3581A6804218A43EC
:100C80001A60FB1D1A785E4B9200D3581A68022135
:100C90008A431A60F7E07B1D1B78012B1BD1FB1DDB
:100CA0001A78574B9200D3581A6857490A401A606D
:100CB000FB1D1A78524B9200D3581A6804210A433C
:100CC0001A60FB1D1A784E4B9200D3581A68022105
:100CD0008A431A60D7E07B1D1B78022B1BD1FB1DBA
:100CE0001A78474B9200D3581A6847490A401A604D
:100CF000FB1D1A78424B9200D3581A6804218A438C
:100D00001A60FB1D1A783E4B9200D3581A680221D4
:100D10000A431A60B7E07B1D1B78032B1BD1FB1D18
:100D20001A78374B9200D3581A6837490A401A602C
:100D3000FB1D1A78324B9200D3581A6804210A43DB
:100D40001A60FB1D1A782E4B9200D3581A680221A4
:100D50000A431A6097E07B1D1B78042B1CD1FB1DF6
:100D60001A78274B9200D3581A68802109010A4348
:100D70001A60FB1D1A78224B9200D3581A6804217E
:100D80008A431A60FB1D1A781D4B9200D3581A68CB
:100D900002218A431A6076E07B1D1B78052B35D132
:100DA000FB1D1A78164B9200D3581A68802109014E
:100DB0000A431A60FB1D1A78114B9200D3581A6827
:100DC00004210A431A60FB1D1A780D4B9200D35878
:100DD0001A6802218A431A6055E0C0463C0600208A
:100DE0000394FFFF0294FFFF00020050FFEFFFFF9C
:100DF000FFDFFFFFFFBFFFFFFF7FFFFF0494FFFF49
:100E00001C000020FFFFFBFFFFF7FFFF7B1D1B788F
:100E1000062B1CD1FB1D1A781D4B9200D3581A6863
:100E2000802109010A431A60FB1D1A78184B9200B1
:100E3000D3581A6804218A431A60FB1D1A78144B90
:100E40009200D3581A6802210A431A601BE0FB1D66
:100E50001A780F4B9200D3581A68802109010A436F
:100E60001A60FB1D1A780A4B9200D3581A680421A5
:100E70000A431A60FB1D1A78054B9200D3581A6872
:100E800002210A431A600023181CBD4605B090BD1C
:100E90001C00002080B582B000AF021CFB1D1A7040
:100EA000BB1D0A1C1A70BB1D1B78002B0AD1FB1D31
:100EB0001A780A4B9200D3581A688021C9000A4355
:100EC0001A6008E0FB1D1A78044B9200D3581A6888
:100ED00003490A401A60BD4602B080BD1C000020D4
:100EE000FFFBFFFF80B582B000AF021CFB1D1A7034
:100EF000BB1D0A1C1A70FB1D1A78094B9200D358AF
:100F0000BA1D127801210A40D2B201210A40120111
:100F10009968102081430A439A60BD4602B080BDA3
:100F20001C00002080B582B000AF021CFB1D1A70AF
:100F3000BB1D0A1C1A70FB1D1A78094B9200D3586E
:100F4000BA1D127801210A40D2B201210A40920052
:100F50009968042081430A439A60BD4602B080BD6F
:100F60001C00002080B500AF334B59221A60324B71
:100F700016221A60304B88221A60304B1A68012101
:100F80000A431A602E4B181C00F08CFF2B4B1A6979
:100F900007218A431A61284B00221A600020002191
:100FA000B422042303F080FA264B274A1A60274B09
:100FB000B4221A70264B01221A70264B32221A6074
:100FC000254B7D221A70244B1B78FA2B02D9224B19
:100FD00032221A701B4B1A681E4B1B68101C191CFE
:100FE00004F060F8031C1A1C184B1B780133101C0A
:100FF000191C04F057F8031C1A1C154B1B78101C05
:10100000191C04F04FF8031C9BB2013B9AB2134B1E
:101010001A80114B1B789BB2013B9AB2104B1A807D
:101020000E4B1A880E4B1B880020111C1A1C03F053
:101030004BFDBD4680BDC04600010050000200507F
:10104000881300000C070020001BB70000070020D9
:1010500008070020140700201007002002070020C6
:101060000607002080B500AF334B59221A60324B7F
:1010700016221A60304B88221A60304B1A68012100
:101080000A431A602E4B181C00F00CFF2B4B1A69F8
:1010900007218A431A61284B00221A600020002190
:1010A0005022042303F000FA264B274A1A60274BEC
:1010B00050221A70264B01221A70264B32221A60D7
:1010C000254B7D221A70244B1B78FA2B02D9224B18
:1010D00032221A701B4B1A681E4B1B68101C191CFD
:1010E00003F0E0FF031C1A1C184B1B780133101C83
:1010F000191C03F0D7FF031C1A1C154B1B78101C7E
:10110000191C03F0CFFF031C9BB2013B9AB2134B97
:101110001A80114B1B789BB2013B9AB2104B1A807C
:101120000E4B1A880E4B1B880020111C1A1C03F052
:10113000CBFCBD4680BDC0460001005000020050FF
:10114000881300000C070020001BB70000070020D8
:1011500008070020140700201007002002070020C5
:101160000607002080B582B000AFFFF777FB03F0E1
:101170003FFD03200E2100F09FF9414B1A68FB1D33
:101180001A7000F0DDFF002000F0F0FF031C3B6050
:101190003C4B181C00F086FE03F066FF3A4B002023
:1011A000191C03F03FFF3B68181CFA23990004F058
:1011B00009F8031CDBB23033DBB2002007211A1C14
:1011C00003F0B8FE3B68181CFA23990004F0E0F81D
:1011D0000B1C181C642103F0F5FF031CDBB2303339
:1011E000DBB2002008211A1C03F0A4FE3B68181C87
:1011F000642104F0CDF80B1C181C0A2103F0E2FF57
:10120000031CDBB23033DBB2002009211A1C03F0CF
:1012100091FE3B68181C0A2104F0BAF80B1CDBB2E3
:101220003033DBB200200A211A1C03F083FEFB1DC1
:101230001B78312B0DD10220002100F03DF9134B1A
:10124000181C00F02FFEFFF78DFE114B01221A60D3
:1012500010E0FB1D1B78322B0CD10220002100F086
:1012600003F90C4B181C00F01DFEFFF7FBFE084BAA
:1012700000221A60084B181C00F014FE7DE7C046DF
:101280000000054040420F00A853000020A10700C5
:101290002C000020A08601001027000080B582B03D
:1012A00000AF0F4B1B6A7B600E4B1B6A3B603B68B9
:1012B0000D4A13403B600A4B7A681A62094B3A6840
:1012C0001A620A4B1B68002B06D0084B1B68796812
:1012D0003A68081C111C9847BD4602B080BDC04644
:1012E0000040005040400050FF3FFFFF8C060020B0
:1012F00080B584B000AF0F4B1B6AFB600E4B1B6ABE
:10130000BB600E4B1B6A7B600A4BFA681A620A4B81
:10131000BA681A62094B7A681A62094B1B68002B7B
:1013200005D0074B1B68F868B9687A689847BD46CE
:1013300004B080BD80400050C040005000410050CB
:101340009006002080B500AF064B8022D2011A62C1
:10135000054B1B68002B02D0034B1B689847BD460A
:1013600080BDC046404000509406002080B500AFCC
:10137000064B802212021A62054B1B68002B02D01A
:10138000034B1B689847BD4680BDC0464040005097
:101390009806002080B584B000AF3960111CFB1D99
:1013A000021C1A70BB1D0A1C1A703B68002B02DB62
:1013B0003B68102B01DD2A4B4EE0FB1D1B789B0187
:1013C000284A94466344FB60BB1D1B78002B07D062
:1013D000BB1D1B78012B03D0BB1D1B78022B29D111
:1013E000FB68FA6812683968490003208840011CCC
:1013F000C9430A401A60BB1D1B78012B0AD1FB6848
:10140000FA6812683968490001208840011C0A43C3
:101410001A600EE0BB1D1B78022B0AD1FB68FA682C
:1014200012683968490002208840011C0A431A608A
:1014300011E010E0BB1D1B78032B0AD1FB68FA6892
:1014400012683968490003208840011C0A431A6069
:1014500001E0034B00E00023181CBD4604B080BD32
:101460000189FFFF0040005080B584B000AF021C2E
:101470003960FB1D1A703B68002B02DB3B68102BA8
:1014800001DD0B4B10E0FB1D1B789B01094A9446C4
:101490006344FB60FB689B6801213A6891400A1C29
:1014A0001A43FB689A600023181CBD4604B080BD37
:1014B0000189FFFF0040005080B584B000AF021CDE
:1014C0003960FB1D1A703B68002B02DB3B68102B58
:1014D00001DD0C4B11E0FB1D1B789B010A4A944671
:1014E0006344FB60FB689B6801213A6891400A1CD9
:1014F000D2431A40FB689A600023181CBD4604B012
:1015000080BDC0460189FFFF0040005080B584B017
:1015100000AF021CFB1D1A70FB1D1B783D2B00D970
:1015200027E39A00DA4BD3181B689F46D94B002259
:101530001A60D94B00221A60D84B00221A60D84B8F
:1015400000221A60D74B00221A6014E3D24BD24A11
:101550001268802149010A431A60D34BD24A1268AB
:101560008021C9000A431A60CF4BCF4A1268CF4985
:101570000A401A60FFE2C74BC64A1268C0218900C0
:101580000A431A60F7E2C34BC24A1268C02109013C
:101590000A431A60C44BC44A1268C4490A401A601C
:1015A000E9E2BE4BBD4A12680F210A431A60B94BEB
:1015B000B84A1268802109020A431A60BA4BBA4A33
:1015C0001268F82189000A431A60D4E2B44BB44A85
:1015D0001268C0210A431A60CDE2FB1D1B78062B5E
:1015E00004D10F23FB1806221A7003E00F23FB1807
:1015F0000E221A70A94BA94A12680F21791809788E
:1016000003208840011C0A431A60A74BA64A1268AF
:10161000A6490A401A60AEE2A04BA04A12680F2108
:101620000A431A60A04BA04A1268A1490A401A60F6
:10163000A1E2994B984A12688021C9000A431A60B6
:10164000994B994A126801210A431A6093E2934B1D
:10165000924A126830210A431A608CE28F4B8F4AFB
:101660001268F02109010A431A608F4B8E4A1268F2
:101670008E490A401A607EE2874B874A12688021B1
:1016800089000A431A60884B874A126802210A437C
:101690001A6070E2814B814A1268C02189010A43B5
:1016A0001A6068E27E4B7E4A12680F210A431A6074
:1016B00061E2784B774A126880210A431A607A4BBC
:1016C000794A126804210A431A60774B764A1268F5
:1016D00076490A401A604EE2714B714A1268302115
:1016E0000A431A6047E26E4B6D4A1268F021090105
:1016F0000A431A603FE2684B674A12688021C901B9
:101700000A431A60684B684A126808210A431A6043
:1017100031E2634B624A1268C02189010A431A60B0
:1017200029E25E4B5D4A12680F210A431A6022E2E9
:101730005B4B5B4A126802210A431A601BE2584B5A
:10174000574A126804210A431A6014E2564B564A5B
:10175000126804218A431A60534B534A1268534952
:101760000A401A604B4B4B4A1268F91D0978173929
:1017700001208840011C0A431A60FCE14A4B4A4A96
:10178000126808218A431A60434B434A1268F91DC4
:101790000978113901208840011C0A431A60EAE1E6
:1017A0003D4B3D4A1268802149000A431A60E2E13C
:1017B000394B394A1268802189000A431A603A4B32
:1017C000394A126802218A431A60D4E1324B324A04
:1017D00012688021C9000A431A60334B324A1268EA
:1017E00001218A431A60C6E12B4B2B4A12688021E3
:1017F00009010A431A602C4B2B4A126810218A43B4
:101800001A60B8E1244B244A1268802109020A4375
:101810001A60254B244A1268802149040A431A6041
:10182000A9E1204B1F4A126820210A431A601E4B6F
:101830001D4A1268802189040A431A609BE1164BF5
:10184000154A126804210A431A60174B164A126897
:101850008021C9040A431A608DE10F4B0E4A1268B9
:1018600008210A431A60104B0F4A126880210905AB
:101870000A431A607FE1FB1D1B78282B1AD9FB1D38
:101880001B782B2B16D80F23FB1800221A7015E09B
:10189000B0530000300000503400005038000050B9
:1018A0003C0000504000005050000050FFF7FFFF88
:1018B0001FFEFFFF0F23FB1804221A70FB1D1B786D
:1018C000292B03D0FB1D1B782C2B11D1AC4BAC4A20
:1018D00012680F21791809780F208840011C0A43EB
:1018E0001A60A84BA74A1268A7490A401A602EE05E
:1018F000FB1D1B782A2B03D0FB1D1B782D2B0BD136
:101900009F4B9F4A12680F2179180978032088405D
:10191000011C0A431A601AE0FB1D1B782B2B03D015
:10192000FB1D1B782E2B12D1954B954A12680F2167
:1019300079180978023103208840011C0A431A6093
:10194000904B904A126890490A401A6013E112E1E4
:101950008E4B8E4A1268C02109020A431A600AE1BE
:10196000FB1D1B78302B07D1894B894A1268C02197
:1019700089010A431A600AE0854B854A1268F91DFD
:101980000978283901208840011C0A431A607D4BE0
:101990007C4A12687C490A401A60ECE0FB1D1B7807
:1019A000312B13D17A4B7A4A1268C02109020A43BB
:1019B0001A60744B734A126876490A401A60714B78
:1019C000704A126870490A401A601CE0704B704AF5
:1019D0001268F91D0978283901208840011C0A4342
:1019E0001A60FB1D1B78362B06D1664B654A1268C0
:1019F00065490A401A6006E0624B624A126865490E
:101A00000A401A60B7E0B6E0FB1D1B78322B13D1F9
:101A10005B4B5B4A1268802109010A431A60594BEB
:101A2000584A126810210A431A605B4B5A4A1268DE
:101A300020210A431A6018E0FB1D1B78382B0DD1BA
:101A40004F4B4F4A1268802109010A431A604D4BDF
:101A50004C4A126810210A431A6006E04E4B4E4A67
:101A6000126820210A431A6085E084E0FB1D1B7880
:101A7000332B06D1484B484A126803210A431A60A7
:101A800011E0FB1D1B783A2B06D1434B424A1268EA
:101A900001210A431A6006E03F4B3F4A12680221C7
:101AA0000A431A6067E066E0354B354A12680C213C
:101AB0000A431A60334B334A1268C021C9010A43F2
:101AC0001A60334B324A126834490A431A602D4B6C
:101AD0002C4A1268FF2109040A431A60FB1D1B7877
:101AE0003C2B17D1264B264A12680C218A431A60D8
:101AF000244B244A12682A490A401A60244B244A7B
:101B0000126828490A401A601E4B1E4A126826496C
:101B10000A401A601B4B1B4A1268C02149010A4344
:101B20001A60224B214A1268802149000A431A6038
:101B3000174B174A1268C02109010A431A60104B5B
:101B40000F4A1268C0210A431A60114B104A1268EA
:101B5000C0210A431A60154B144A126814490A43FB
:101B60001A60074B064A1268C02189010A431A60AD
:101B700001E0104B00E00023181CBD4604B080BDFE
:101B80003400005050000050FFF7FFFF3C000050B1
:101B900030000050FFFDFFFF400000503E7000008D
:101BA000FF9FFFFFC18FFFFFFFFF00FF38000050C6
:101BB000C0C000000189FFFF80B500AFA023DB0596
:101BC0009A6910210A439A61044B1B68002B02D0CA
:101BD000024B1B689847BD4680BDC0469C0600204E
:101BE00080B582B000AF021CFB1D1A70BB1D0A1C21
:101BF0001A70FB1D1B780C2B00D9C3E09A00654BB3
:101C0000D3181B689F46644BBA1D127803210A4003
:101C1000D2B203210A409200D9690C2081430A43C1
:101C2000DA61B1E05C4BBA1D127803210A40D2B2EE
:101C300003210A40D969032081430A43DA61A3E002
:101C4000554BBA1D127803210A40D2B203210A4033
:101C50009201D969C02081430A43DA6194E04E4B76
:101C6000BA1D127803210A40D2B203210A401201A0
:101C7000D969302081430A43DA6185E0464BBA1DB9
:101C8000127803210A40D2B2920759698900890863
:101C90000A435A6178E0404BBA1D127803210A408A
:101CA000D2B203210A40120759693C4801400A4355
:101CB0005A6169E0384BBA1D127803210A40D2B24A
:101CC00003210A4012065969354801400A435A6106
:101CD0005AE0314BBA1D127807210A40D2B20721CF
:101CE0000A40120559692F4801400A435A614BE0E6
:101CF000294BBA1D127807210A40D2B207210A40A7
:101D000012045969284801400A435A613CE0224BB9
:101D1000BA1D127807210A40D2B207210A401203E5
:101D20005969224801400A435A612DE01A4BBA1DF5
:101D3000127807210A40D2B207210A4012025969DB
:101D40001B4801400A435A611EE0134BBA1D12782A
:101D500003210A40D2B203210A40920059690C20A3
:101D600081430A435A610FE00B4BBA1D12780321DD
:101D70000A40D2B203210A405969032081430A4331
:101D80005A6101E00B4B00E00023181CBD4602B075
:101D900080BDC046A854000000020050FFFFFFCFE6
:101DA000FFFFFFFCFFFF8FFFFFFFF8FFFF8FFFFF2D
:101DB000FFF8FFFF0496FFFF80B500AF064B1A68DF
:101DC00040210A431A60054B1B68002B02D0034BCD
:101DD0001B689847BD4680BD00020050A006002049
:101DE00080B500AF014B181CBD4680BD001BB7007D
:101DF00090B587B000AF00237B613B1C254A13CA16
:101E000013C312681A60244B1B6ADB0C1A1C0123D3
:101E10001340DBB2012B02D1204B3B6101E0204B90
:101E20003B611D4B1B6A1B0C1A1C01231340DBB2C8
:101E3000012B02D100237B6127E0174B1B6ADB05D6
:101E4000DB0D9BB202331A1C3B695A43124B1B6ACF
:101E50005B0A191C1F230B40DBB20233101C191C38
:101E600003F020F9031C191C0B4B1B6A9B0B1A1C5B
:101E700003231340DBB21A1C3B1C9200D358081CEE
:101E8000191C03F00FF9031C7B617B69181CBD460C
:101E900007B090BDDC5400000002005000805101EA
:101EA000001BB70080B582B000AF78600A4A0B4BC8
:101EB0001B6879684B435360074B00229A60064BBE
:101EC00005221A60C046044B1A6880235B02134047
:101ED000F9D0BD4602B080BD10E000E00400002053
:101EE00080B584B000AF021CFB1D1A70FB1D1B786F
:101EF000042B30D89A001B4BD3181B689F461A4BF3
:101F0000DB681A1C01231340DBB2FB6025E0164B93
:101F1000DB685B081A1C01231340DBB2FB601CE08A
:101F2000114BDB681B091A1C01231340DBB2FB6059
:101F300013E00D4BDB68DB081A1C01231340DBB2F6
:101F4000FB600AE0084BDB689B081A1C0123134066
:101F5000DBB2FB6001E0054B00E0FB68181CBD46EE
:101F600004B080BDEC540000000200500396FFFF57
:101F7000B0B582B000AF051C0C1C101C191CFB1D59
:101F80002A1C1A70BB1D221C1A707B1D021C1A70A1
:101F90003B1D0A1C1A70A023DB05DA688021490565
:101FA0000A43DA60A023DB05DA6830490A40DA60C8
:101FB0002F4B3A1D127803210A40D2B203210A4066
:101FC000920059690C2081430A435A61284B182218
:101FD000BA181278FF210A40120499692548014075
:101FE0000A439A61224B9A68802149050A439A6004
:101FF000214B1A6A01210A431A62FB1D1B78002B30
:1020000005D11D4B1A6A1D490A401A6205E01A4B98
:102010001A6A8021C9000A431A62BB1D1B78002B73
:1020200005D1154B1A6A0C218A431A6210E0BB1DB8
:102030001B78012B07D1104B1A6A0C218A43082107
:102040000A431A6204E00C4B1A6A0C210A431A6212
:10205000094B7A1D1278FF210A40596AFF208143FB
:102060000A435A62BD4602B0B0BDC046FFFFFFEF53
:1020700000020050FFFF00FF00000E40FFFBFFFFCB
:1020800080B500AF284B1B6B1A1C01231340DBB239
:10209000012B11D1254B1B68002B05D0234B1A684F
:1020A000234B1B68181C9047224B224A12680721B9
:1020B0008A4301210A431A601B4B1B6B5B081A1CE5
:1020C00001231340DBB2012B11D11B4B1B68002BEA
:1020D00005D0194B1A68164B5B68181C9047154BB6
:1020E000144A126807218A4302210A431A600E4BE0
:1020F0001B6B9B081A1C01231340DBB2012B11D16F
:102100000E4B1B68002B05D00C4B1A68084B9B68C4
:10211000181C9047074B074A126807218A4304217D
:102120000A431A60BD4680BD00000E40A406002090
:10213000B006002030000E40A8060020AC060020AB
:1021400080B500AF074B074A126807218A43012177
:102150000A431A60044B1A6A802109010A431A6271
:10216000BD4680BD30000E4000000E4080B584B0FA
:1021700000AF021CFB1D1A70224B1B6A9B0A1A1C23
:1021800001231340DBB2002B0CD11E4AFB1D1B7830
:102190009B009B581A1C00239A43131C9BB21B05DF
:1021A0001B0D2BE0174B1B6ADB0FDBB2002B0AD198
:1021B000144AFB1D1B789B009B581A1C00239A4352
:1021C000131C9BB21AE00F49FB1D1A780E23FB1853
:1021D00092005258111C002291430A1C1A800E23AF
:1021E000FB181B881BB2002B05DA0E23FB181B887B
:1021F000054A134302E00E23FB181B88181CBD463A
:1022000004B080BD00000E400000FFFF80B582B02A
:1022100000AF021CFB1D1A70064BFA1D1278111C30
:102220001F220A40012191400A1C1A60BD4602B0DB
:1022300080BDC04600E100E0B0B582B000AF021C36
:102240003960FB1D1A70FB1D1B787F2B2FD92D4C7D
:10225000FB1D1B781A1C0F231340083B9908294AC1
:10226000FB1D1B78181C0F230340083B9B080633FB
:102270009B00D3185B68FA1D1278101C03220240E1
:10228000D200101CFF228240D2431A403B689B01BF
:10229000FF200340F81D0078051C03202840C000E3
:1022A00083401A438B1D9B00E3185A6026E0164CAE
:1022B000FB1D1B785BB29B081349FA1D127852B2C2
:1022C0009208C03292005258F91D0978081C032167
:1022D0000140C900081CFF218140C94311403A68F0
:1022E0009201FF200240F81D0078051C03202840C1
:1022F000C00082400A43C0339B001A51BD4602B061
:10230000B0BDC04600ED00E000E100E080B584B063
:1023100000AF5B4B1B68FB60FB680122134009D0D8
:10232000574B01221A60574B1B68002B02D0554BAC
:102330001B689847FB680222134009D0504B0222C9
:102340001A60504B9B68002B02D04E4B9B689847FD
:10235000FB680422134009D0494B04221A60494B00
:102360001B69002B02D0474B1B699847FB6808226A
:10237000134009D0424B08221A60424B9B69002B44
:1023800002D0404B9B6998473F4B1B68BB603F4B5B
:102390001B687B60BB681022134017D03C4B1B6846
:1023A000002B06D0384B384A12683A490A401A6066
:1023B00005E0354B344A126837490A401A60314B00
:1023C0005B68002B02D02F4B5B689847BA6880236C
:1023D0005B03134017D02E4B1B68002B06D02A4BF3
:1023E000294A12682D490A401A6005E0264B264A00
:1023F000126810218A431A60224BDB68002B02D03E
:10240000204BDB6898477B681022134017D0204B85
:102410001B68002B06D01D4B1C4A12681D490A4040
:102420001A6005E0194B194A12681B490A401A60E4
:10243000144B5B69002B02D0124B5B6998477A689A
:1024400080235B03134017D0114B1B68002B06D071
:102450000E4B0E4A126811490A401A6005E00B4BF8
:102460000A4A126810218A431A60064BDB69002B66
:1024700002D0044BDB699847BD4604B080BDC0461E
:1024800044000440BC0600205000044054000440B6
:10249000FC0600201F000F00FFFFEFFF0F001F00D2
:1024A00080B584B000AF5B4B1B68FB60FB6801220A
:1024B000134009D0574B01221A60574B1B68002B61
:1024C00002D0554B1B689847FB680222134009D085
:1024D000504B02221A60504B9B68002B02D04E4B8F
:1024E0009B689847FB680422134009D0494B04229B
:1024F0001A60494B1B69002B02D0474B1B69984758
:10250000FB680822134009D0424B08221A60424B54
:102510009B69002B02D0404B9B6998473F4B1B683F
:10252000BB603F4B1B687B60BB681022134017D019
:102530003C4B1B68002B06D0384B384A12683A498E
:102540000A401A6005E0354B344A126837490A40A0
:102550001A60314B5B68002B02D02F4B5B689847A9
:10256000BA6880235B03134017D02E4B1B68002BE7
:1025700006D02A4B294A12682D490A401A6005E004
:10258000264B264A126810218A431A60224BDB68C8
:10259000002B02D0204BDB6898477B681022134049
:1025A00017D0204B1B68002B06D01D4B1C4A12680D
:1025B0001D490A401A6005E0194B194A12681B4967
:1025C0000A401A60144B5B69002B02D0124B5B6906
:1025D00098477A6880235B03134017D0114B1B6820
:1025E000002B06D00E4B0E4A126811490A401A60A1
:1025F00005E00B4B0A4A126810218A431A60064B09
:10260000DB69002B02D0044BDB699847BD4604B060
:1026100080BDC04644001440DC0600205000144039
:1026200054001440FC0600201F000F00FFFFEFFFC6
:102630000F001F0080B584B000AF3A60FB1D021C84
:102640001A70BB1D0A1C1A70BB1D1B780122134097
:10265000FB60BB1D1B7802221340BB60FB1D1B7877
:10266000172B00D921E29A00CB4BD3181B689F4649
:10267000CA4B1A6C01210A431A64C94B3A681A60A2
:1026800013E2FB68002B14D0C64B1B68002B08D04C
:10269000C54BC54A1268C5490A4002210A431A605F
:1026A00007E0C14BC04A1268C1490A4002210A43EF
:1026B0001A60BB68002B14D0BA4B1B68002B08D0E3
:1026C000B94BB94A1268BB490A4004210A431A604F
:1026D00007E0B54BB44A1268B7490A4004210A43DF
:1026E0001A60AF4B3A685A60DFE1AC4B1A6C0221BA
:1026F0000A431A64AA4B3A689A60D6E1FB68002B39
:1027000016D0A84B1B68002B09D0A74BA64A12680D
:10271000AA490A40802189020A431A6008E0A24BB4
:10272000A14A1268A6490A40802189020A431A6018
:10273000BB68002B16D09B4B1B68002B09D09A4B13
:10274000994A12689F490A408021C9020A431A60C7
:1027500008E0954B944A12689B490A408021C902BF
:102760000A431A608E4B3A68DA609EE18B4B1A6C12
:1027700004210A431A648A4B3A681A6195E1FB689E
:10278000002B14D0874B1B68002B08D08F4B8F4A2F
:10279000126886490A4002210A431A6007E08B4BFF
:1027A0008A4A126882490A4002210A431A60BB68B9
:1027B000002B14D07B4B1B68002B08D0834B834A23
:1027C00012687C490A4004210A431A6007E07F4BE3
:1027D0007E4A126878490A4004210A431A60704B05
:1027E0003A685A6161E16D4B1A6C08210A431A6418
:1027F0006B4B3A689A6158E1FB68002B16D0694B25
:102800001B68002B09D0714B704A12686B490A4053
:10281000802189020A431A6008E06C4B6B4A1268F7
:1028200067490A40802189020A431A60BB68002B6D
:1028300016D05C4B1B68002B09D0644B634A1268AE
:1028400060490A408021C9020A431A6008E05F4BD0
:102850005E4A12685C490A408021C9020A431A6034
:102860004F4B3A68DA6120E1594B1A6C01210A4357
:102870001A64584B3A681A6017E1FB68002B14D0B1
:10288000484B1B68002B08D0534B534A12684749EA
:102890000A4002210A431A6007E04F4B4E4A126871
:1028A00043490A4002210A431A60BB68002B14D036
:1028B0003C4B1B68002B08D0474B474A12683D49E8
:1028C0000A4004210A431A6007E0434B424A126857
:1028D00039490A4004210A431A603E4B3A685A605B
:1028E000E3E03B4B1A6C02210A431A64394B3A6805
:1028F0009A60DAE0FB68002B16D02A4B1B68002B8D
:1029000009D0354B344A12682C490A40802189028B
:102910000A431A6008E0304B2F4A126828490A40DF
:10292000802189020A431A60BB68002B16D01D4B18
:102930001B68002B09D0284B274A126821490A40FE
:102940008021C9020A431A6008E0234B224A126818
:102950001D490A408021C9020A431A601D4B3A688A
:10296000DA60A2E01A4B1A6C04210A431A64194B6C
:102970003A681A6199E0FB68002B39D0094B1B6853
:10298000002B2DD0154B154A126808490A40022128
:102990000A431A602CE0C0460055000000000440C5
:1029A000BC060020FC060020500004400D000F0073
:1029B000EDFFEFFF0B000F00EBFFEFFF0F000D002F
:1029C000EFFFEDFF0F000B00EFFFEBFF54000440A3
:1029D00000001440DC060020500014405400144055
:1029E0003D4B3D4A12683D490A4002210A431A60A4
:1029F000BB68002B14D03A4B1B68002B08D0364B19
:102A0000354A126837490A4004210A431A6007E030
:102A1000314B314A126834490A4004210A431A6092
:102A2000324B3A685A6140E0314B1A6C08210A4334
:102A30001A642E4B3A689A6137E0FB68002B16D077
:102A4000274B1B68002B09D0234B234A12682949C6
:102A50000A40802189020A431A6008E01E4B1E4A80
:102A6000126825490A40802189020A431A60BB681E
:102A7000002B16D01A4B1B68002B09D0164B164A98
:102A800012681E490A408021C9020A431A6008E000
:102A9000114B114A12681A490A408021C9020A439F
:102AA0001A60124B3A68DA61C046FB1D1B7804229B
:102AB000134007D007200221FFF7BEFB0720FFF7D6
:102AC000A5FB06E006200221FFF7B6FB0620FFF774
:102AD0009DFBBD4604B080BD54001440EDFFEFFFE8
:102AE000FC0600200B000F00EBFFEFFFDC060020D0
:102AF000000014400F000D00EFFFEDFF0F000B0072
:102B0000EFFFEBFF80B582B000AF021CFB1D1A7017
:102B1000FB1D1B78172B00D90CE19A00874BD318AB
:102B20001B689F46864B1A6C01218A431A64854BA9
:102B300001221A60844B00221A60FBE0804B1A6C61
:102B400002218A431A647F4B02221A607E4B0022C4
:102B50009A60EFE07A4B1A6C04218A431A64794B2D
:102B600004221A60784B00221A61E3E0744B1A6C5D
:102B700008218A431A64734B08221A60724B0022A0
:102B80009A61D7E0714B1A6C01218A431A64704B29
:102B900001221A606F4B00221A60CBE06B4B1A6C5B
:102BA00002218A431A646A4B02221A60694B00228E
:102BB0009A60BFE0654B1A6C04218A431A64644B27
:102BC00004221A60634B00221A61B3E05F4B1A6C57
:102BD00008218A431A645E4B08221A605D4B00226A
:102BE0009A61A7E05C4B1B68002B06D05B4B5B4AED
:102BF00012685B490A401A6005E0584B574A126850
:102C000058490A401A60504B00225A6092E0524BD9
:102C10001B68002B06D0514B504A126852490A409B
:102C20001A6005E04D4B4D4A126850490A401A603F
:102C3000454B0022DA607DE0474B1B68002B06D035
:102C40004B4B4B4A126846490A401A6005E0484B14
:102C5000474A126843490A401A603B4B00225A61B6
:102C600068E03D4B1B68002B06D0414B404A126880
:102C70003D490A401A6005E03D4B3D4A12683B4918
:102C80000A401A60304B0022DA6153E0324B1B6875
:102C9000002B06D0374B374A126831490A401A6078
:102CA00005E0344B334A12682E490A401A60294B1A
:102CB00000225A603EE0284B1B68002B06D02D4BAB
:102CC0002C4A126828490A401A6005E0294B294A13
:102CD000126826490A401A601E4B0022DA6029E079
:102CE0001D4B1B68002B06D0234B234A12681C493E
:102CF0000A401A6005E0204B1F4A126819490A4031
:102D00001A60144B00225A6114E0134B1B68002B0D
:102D100006D0194B184A126813490A401A6005E098
:102D2000154B154A126811490A401A60094B0022D6
:102D3000DA61C046BD4602B080BDC04660550000A5
:102D40000000044044000440BC0600200000144081
:102D500044001440DC060020FC0600205000044023
:102D600009000F00E9FFEFFF0F000900EFFFE9FF87
:102D700054000440500014405400144080B582B008
:102D800000AF021CFB1D1A70FB1D1B78172B00D90E
:102D9000A5E09A00534BD3181B689F46524BFA1D6F
:102DA0001278012191400A1C1A6098E04F4BFA1DDD
:102DB0001278043A012191400A1C1A608FE04C4BB2
:102DC0001B68002B06D04B4B4A4A12684A490A40FE
:102DD0001A6084E0474B474A126848490A401A6023
:102DE0007DE0434B1B68002B06D0424B414A1268E2
:102DF00043490A401A6072E03E4B3E4A1268102175
:102E00008A431A606BE03A4B1B68002B06D03D4B9F
:102E10003C4A126838490A401A6060E0394B394A26
:102E2000126836490A401A6059E0314B1B68002B82
:102E300006D0344B334A126831490A401A604EE0DA
:102E4000304B304A126810218A431A6047E0284B01
:102E50001B68002B06D02C4B2B4A126826490A40CF
:102E60001A603CE0284B284A126824490A401A603C
:102E700035E01F4B1B68002B06D0234B224A1268FB
:102E80001F490A401A602AE01F4B1F4A126810218E
:102E90008A431A6023E0164B1B68002B06D01B4B9D
:102EA0001A4A126814490A401A6018E0174B174A68
:102EB000126812490A401A6011E00D4B1B68002B82
:102EC00006D0124B114A12680D490A401A6005E0FB
:102ED0000E4B0E4A126810218A431A60C046BD4646
:102EE00002B080BDC05500004400044044001440BE
:102EF000FC060020500004401F000F00FFFFEFFF02
:102F00000F001F00540004405000144054001440AF
:102F100080B584B000AF021CFB1D1A700023FB605B
:102F2000FB1D1B78172B67D89A00364BD3181B68EC
:102F30009F46354B1B68FA1D1278012191400A1CEF
:102F400013405A1E9341DBB2FB6055E02F4B1B68C8
:102F5000FA1D1278043A012191400A1C13405A1EAE
:102F60009341DBB2FB6047E0294B1B6D1B091A1C28
:102F700001231340DBB2FB603EE0254B1B6D1B0DB4
:102F80001A1C01231340DBB2FB6035E0204B5B6D64
:102F90001B091A1C01231340DBB2FB602CE01C4B05
:102FA0005B6D1B0D1A1C01231340DBB2FB6023E099
:102FB000184B1B6D1B091A1C01231340DBB2FB606D
:102FC0001AE0144B1B6D1B0D1A1C01231340DBB2BE
:102FD000FB6011E00F4B5B6D1B091A1C01231340B2
:102FE000DBB2FB6008E00B4B5B6D1B0D1A1C012371
:102FF0001340DBB2FB60C046FB68181CBD4604B042
:1030000080BDC046205600004400044044001440E7
:10301000000004400000144080B584B000AF021CE2
:10302000FB1D1A70BB1D0A1C1A700023FB60FB1DE0
:103030001B78103B072B00D9ACE09A00584BD318F3
:103040001B689F46BB1D1B78062B07D1554B1B6D7C
:103050009B091A1C01231340DBB206E0514B1B6D88
:10306000DB091A1C01231340DBB2FB6092E0BB1D9D
:103070001B78062B07D14B4B1B6D9B0D1A1C012394
:103080001340DBB206E0474B1B6DDB0D1A1C01231E
:103090001340DBB2FB607DE0BB1D1B78062B07D124
:1030A000404B5B6D9B091A1C01231340DBB206E009
:1030B0003C4B5B6DDB091A1C01231340DBB2FB6048
:1030C00068E0BB1D1B78062B07D1364B5B6D9B0D53
:1030D0001A1C01231340DBB206E0324B5B6DDB0DA3
:1030E0001A1C01231340DBB2FB6053E0BB1D1B78AD
:1030F000062B07D12C4B1B6D9B091A1C0123134077
:10310000DBB206E0284B1B6DDB091A1C01231340C0
:10311000DBB2FB603EE0BB1D1B78062B07D1224BC8
:103120001B6D9B0D1A1C01231340DBB206E01E4BE6
:103130001B6DDB0D1A1C01231340DBB2FB6029E081
:10314000BB1D1B78062B07D1174B5B6D9B091A1C07
:1031500001231340DBB206E0134B5B6DDB091A1C45
:1031600001231340DBB2FB6014E0BB1D1B78062B70
:1031700007D10D4B5B6D9B0D1A1C01231340DBB275
:1031800006E0094B5B6DDB0D1A1C01231340DBB21B
:10319000FB60C046FB68181CBD4604B080BDC0463D
:1031A00080560000000004400000144080B582B04A
:1031B00000AF021CFB1D1A70BB1D0A1C1A709F4B2E
:1031C0001B68002B00D19BE0FB1D1B78103B072BDD
:1031D00000D930E19A009A4BD3181B689F46BB1D5B
:1031E0001B78062B06D1974B964A126896490A40DF
:1031F0001A6084E0934B934A126894490A401A601B
:103200007DE0BB1D1B78062B06D18E4B8D4A1268C4
:103210008F490A401A6072E08A4B8A4A12688D49C7
:103220000A401A606BE0BB1D1B78062B06D18A4B47
:10323000894A126884490A401A6060E0864B864ACF
:10324000126882490A401A6059E0BB1D1B78062BA0
:1032500006D1814B804A12687D490A401A604EE0CF
:103260007D4B7D4A12687B490A401A6047E0BB1DCE
:103270001B78062B06D1794B784A126872490A40AE
:103280001A603CE0754B754A126870490A401A6032
:1032900035E0BB1D1B78062B06D1704B6F4A1268B8
:1032A0006B490A401A602AE06C4B6C4A1268694903
:1032B0000A401A6023E0BB1D1B78062B06D1684B21
:1032C000674A126860490A401A6018E0644B644A11
:1032D00012685E490A401A6011E0BB1D1B78062B7C
:1032E00006D15F4B5E4A126859490A401A6005E0F0
:1032F0005B4B5B4A126857490A401A60C0469AE025
:10330000FB1D1B78103B072B00D994E09A00554B0E
:10331000D3181B689F46BB1D1B78062B06D1494B53
:10332000484A126850490A401A6084E0454B454AB1
:1033300012684E490A401A607DE0BB1D1B78062BBF
:1033400006D1404B3F4A126849490A401A6072E070
:103350003C4B3C4A126847490A401A606BE0BB1D6F
:103360001B78062B06D13C4B3B4A12683E490A406B
:103370001A6060E0384B384A12683C490A401A60CB
:1033800059E0BB1D1B78062B06D1334B324A12681D
:1033900037490A401A604EE02F4B2F4A12683549D0
:1033A0000A401A6047E0BB1D1B78062B06D12B4B49
:1033B0002A4A12682C490A401A603CE0274B274AE7
:1033C00012682A490A401A6035E0BB1D1B78062B9B
:1033D00006D1224B214A126825490A401A602AE088
:1033E0001E4B1E4A126823490A401A6023E0BB1D87
:1033F0001B78062B06D11A4B194A12681A490A4043
:103400001A6018E0164B164A126818490A401A60EA
:1034100011E0BB1D1B78062B06D1114B104A126818
:1034200013490A401A6005E00D4B0D4A1268114914
:103430000A401A60C046BD4602B080BDFC060020AE
:10344000A0560000500004404F000F008F000F00F6
:103450000F004F000F008F00540004405000144034
:1034600054001440C0560000AFFFEFFF6FFFEFFFA6
:10347000EFFFAFFFEFFF6FFF80B500AF0A4B0A4AC7
:103480001268F02109040A431A60084B074A1268BF
:10349000C02189030A431A60044B044A1268044994
:1034A0000A401A60BD4680BD080200500C00005062
:1034B000FFFFCFFF80B582B000AF3A60FB1D021C5A
:1034C0001A70BB1D0A1C1A70FB1D1B7807221340C3
:1034D000072B6CD89A00374BD3181B689F46364B86
:1034E000BA1D1278FF210A401204196833480140BE
:1034F0000A431A60304B3A68D2B2111C01220A40CA
:10350000D2B201210A4012019968102081430A4376
:103510009A604CE0284BBA1D12781206196809020D
:10352000090A0A431A60244B3A68D2B2111C0122DC
:103530000A40D2B201210A405201996820208143F9
:103540000A439A6033E01E4BBA1D1278FF210A40ED
:1035500012041968194801400A431A60184B3A6866
:10356000D2B2111C01220A40D2B201210A4012013A
:103570009968102081430A439A6018E0104BBA1DE5
:103580001278120619680902090A0A431A600C4BDC
:103590003A68D2B2111C01220A40D2B201210A407B
:1035A00052019968202081430A439A60C046BD4673
:1035B00002B080BDE056000000000440FFFF00FFA5
:1035C0000000144080B582B000AF021C3960FB1DC2
:1035D0001A70FB1D1B780722134040D4032B02DD19
:1035E000072B3CDC1CE0844B834A1268F91D0978E8
:1035F00007200140C90001208840011CC9430A403E
:103600003968002908D0F91D097807200140C90050
:1036100001208840011C00E000210A431A601EE0DE
:10362000764B764A1268F91D097807200140043963
:10363000C90001208840011CC9430A40396800299B
:1036400009D0F91D0978072001400439C90001207B
:103650008840011C00E000210A431A60C046FB1D9F
:103660001B781022134000D1C2E0FB1D1B78103BD9
:10367000072B00D9BCE09A00614BD3181B689F460A
:10368000604B1B68002B08D05F4B5F4A12685F4994
:103690000A4008210A431A60AAE05B4B5A4A1268A2
:1036A0005B490A4008210A431A60A1E0554B1B6898
:1036B000002B09D0544B544A126856490A408021C5
:1036C00009030A431A6093E04F4B4F4A126852496C
:1036D0000A40802109030A431A6089E0494B1B68AC
:1036E000002B08D04D4B4D4A126848490A4008212A
:1036F0000A431A607CE0494B484A126844490A4030
:1037000008210A431A6073E03E4B1B68002B09D066
:10371000424B424A12683F490A40802109030A434A
:103720001A6065E03D4B3D4A12683B490A408021E2
:1037300009030A431A605BE0324B1B68002B08D078
:10374000374B374A126831490A4008210A431A6048
:103750004EE0334B324A12682D490A4008210A4391
:103760001A6045E0274B1B68002B09D02C4B2C4AD4
:10377000126828490A40802109030A431A6037E089
:10378000274B274A126824490A40802109030A432B
:103790001A602DE01B4B1B68002B08D0214B214ADF
:1037A00012681A490A4008210A431A6020E01D4B9A
:1037B0001C4A126816490A4008210A431A6017E099
:1037C000104B1B68002B09D0164B164A1268114982
:1037D0000A40802109030A431A6008E0114B114A8C
:1037E00012680D490A40802109030A431A60C04645
:1037F000BD4602B080BDC046080004400800144029
:1038000000570000FC0600205000044007000F0095
:10381000E7FFEFFF0F000700EFFFE7FF5400044052
:10382000500014405400144090B58BB000AF021CFF
:103830003960FB1D1A701B23FB1800221A70FB1D38
:103840001B7807221340072B2DD89A00CA4BD31898
:103850001B689F46C94B5B691B0F1A1C032313404F
:10386000DAB21B23FB181A701DE0C44B5B699B0F77
:10387000DAB21B23FB181A7015E0C04BDB691B0979
:103880001A1C03231340DAB21B23FB181A700AE038
:10389000BA4BDB699B091A1C03231340DAB21B23C2
:1038A000FB181A70C0461B23FB181B78002B02D193
:1038B000B34B3B6213E01B23FB181B78012B03D196
:1038C00080231B023B620AE01B23FB181B78022BA0
:1038D00003D1AC4B1B683B6201E0AB4B3B62FB1D71
:1038E0001B78172B00D975E19A00A84BD3181B68D9
:1038F0009F46A74AA64B1B68F91D0978C9000231EB
:1039000001208840011CC94319403B68DB68002B3B
:1039100007D0FB1D1B78DB00023301209840031CFD
:1039200000E000230B43136054E19A4A994B1B6853
:10393000F91D09780439C900023101208840011CB1
:10394000C94319403B68DB68002B08D0FB1D1B787E
:10395000043BDB00023301209840031C00E00023FD
:103960000B43136036E18C4B1B68002B0ED08B4A47
:103970008A4B1B688A4919403B68DB68002B01D0E1
:10398000012300E000230B43136023E1834A834BB0
:103990001B68844919403B68DB68002B01D0012378
:1039A00000E000230B43136014E17B4B1B68002BEA
:1039B0000FD07A4A794B1B68794919403B68DB681C
:1039C000002B02D080235B0200E000230B43136036
:1039D00000E1724A714B1B68724919403B68DB6811
:1039E000002B02D080235B0200E000230B43136016
:1039F000F0E0694B1B68002B0ED06B4A6A4B1B68CA
:103A0000674919403B68DB68002B01D0012300E0C7
:103A100000230B431360DDE0634A634B1B6861497D
:103A200019403B68DB68002B01D0012300E0002334
:103A30000B431360CEE0584B1B68002B0FD05A4A43
:103A4000594B1B68564919403B68DB68002B02D074
:103A500080235B0200E000230B431360BAE0524A6C
:103A6000514B1B684F4919403B68DB68002B02D063
:103A700080235B0200E000230B431360AAE0464B67
:103A80001B68002B0ED0494A484B1B68444919401B
:103A90003B68DB68002B01D0012300E000230B43CF
:103AA000136097E0414A414B1B683E4919403B680F
:103AB000DB68002B01D0012300E000230B431360DF
:103AC00088E0354B1B68002B0FD0384A374B1B68FA
:103AD000334919403B68DB68002B02D080235B022E
:103AE00000E000230B43136074E0304A2F4B1B6847
:103AF0002C4919403B68DB68002B02D080235B0215
:103B000000E000230B43136064E0234B1B68002B91
:103B10000ED0274A264B1B68214919403B68DB68B9
:103B2000002B01D0012300E000230B43136051E080
:103B30001F4A1F4B1B681B4919403B68DB68002B61
:103B400001D0012300E000230B43136042E0124B3D
:103B50001B68002B2ED0164A154B1B6810491940C4
:103B60003B68DB68002B02D080235B0200E000236F
:103B70000B4313602DE0C0462057000000020050A8
:103B8000001BB700000000200080510140570000DA
:103B90000800044008001440FC06002050000440C7
:103BA0000F000F00EFFFEFFF5400044050001440DF
:103BB00054001440C14AC14B1B68C14919403B68BD
:103BC000DB68002B02D080235B0200E000230B4364
:103BD0001360C046FB1D1B780722134046D4032BFD
:103BE00002DD072B42DC1FE0B64BB64A1268F91D16
:103BF000097807200140C900033101208840011CD9
:103C0000C9430A4039680978002909D0F91D0978A3
:103C100007200140C900033101208840011C00E059
:103C200000210A431A6021E0A74BA74A1268F91D38
:103C30000978072001400439C90003310120884078
:103C4000011CC9430A403968097800290AD0F91DC6
:103C50000978072001400439C90003310120884058
:103C6000011C00E000210A431A60C0463B685B6803
:103C7000002B00D006E11A23FB1801221A70FB1D4D
:103C80001B7807221340072B32D89A008F4BD3188A
:103C90001B689F468E4B3A68D278FF210A4019680C
:103CA000FF2081430A431A6022E0894B3A68D278A8
:103CB000FF210A4012021968864801400A431A602F
:103CC00016E0854B3A68D278FF210A401968FF2038
:103CD00081430A431A600BE07F4B3A68D278FF2198
:103CE0000A40120219687B4801400A431A60C04624
:103CF0003B689B683A6852785343181C642101F072
:103D0000D1F9031C013BFB60FB1D1B78072213400C
:103D100000D57AE0032B02DD072B76DC38E06F4B11
:103D20006E4A1268F91D09780720014089000720B2
:103D30008840011CC9430A4039688978081C07215A
:103D40000840F91D09780724214089008840011C9A
:103D50000A431A60FB1D1B7807221A40131C5B00E4
:103D60009B189B005E4A944663441A1C3B689B6800
:103D7000013B1360FB1D1B7807221A40131C5B00DC
:103D80009B189B00574A94466344FA681A603CE0CB
:103D9000554B554A1268F91D09780720014004392E
:103DA000890007208840011CC9430A403968897886
:103DB000081C07210840F91D09780724214004390F
:103DC00089008840011C0A431A60FB1D1B780722EA
:103DD00013401A1F131C5B009B189B00434A944618
:103DE00063441A1C3B689B68013B1360FB1D1B78F6
:103DF000072213401A1F131C5B009B189B003C4AB0
:103E000094466344FA681A60C0463B689B78042B6A
:103E10001DD89A00374BD3181B689F461A23FB18EE
:103E200001221A7013E01A23FB1802221A700EE006
:103E30001A23FB1804221A7009E01A23FB1808221F
:103E40001A7004E01A23FB1810221A70C0463B684F
:103E5000DB780133386A191C01F024F9031C1A1CA1
:103E60001A23FB181B78101C191C01F01BF9031CEA
:103E70001A1C3B689B68101C191C01F013F9031CE9
:103E80007B6207E23B685B68386A191C01F00AF93B
:103E9000031C7B627A6A80235B059A4201D9002366
:103EA000F9E11923FB1801221A707B6A124A934226
:103EB00024D81623FB1802221A8099E054001440DB
:103EC000EFFFEFFF0800044008001440A057000077
:103ED00000000440FF00FFFF000014400400044005
:103EE0000C00044010000440040014400C00144076
:103EF00010001440C0570000FFFF01007B6A1A0C3D
:103F00001623FB181A801623FB181B88786A191CC5
:103F100001F0C8F8031C1A1C80235B029A4206D9E0
:103F20001623FB181A881623FB1801321A80162351
:103F3000FB181A8880235B009A4259D91523FB1875
:103F400000221A701623FB18802252001A801623B2
:103F5000FB181B88786A191C01F0A4F8031C7B620B
:103F60007B6A1A0C1923FB181A701923FB181B788B
:103F7000786A191C01F096F8031C1A1C80235B0256
:103F80009A4206D91923FB181A781923FB18013213
:103F90001A701523FB181B781522BA18591C1170BA
:103FA0001A1C012393401A1C1923FB181B789A42F0
:103FB0000FDDC0461523FB181B78013B01229A40F8
:103FC0001923FB181A701923FB181B78102B09D919
:103FD00006E01923FB181922BA1812781A70D8E7CC
:103FE000002358E11623FB181A887B6A53437B622F
:103FF0001623FB181B88786A191C01F053F8031C60
:104000001A1C1923FB181B78101C191C01F04AF804
:10401000031C1A1C1223FB181A801623FB181B887A
:10402000386A191C01F03EF8031C1A1C1923FB18EE
:104030001B78101C191C01F035F8031C1A1C1223E4
:10404000FB181B88101C191C01F02CF8031C7B6248
:10405000FB1D1B7807221340072B42D89A00904B78
:10406000D3181B689F468F4B1622BA181288D2B2FB
:10407000013AD2B2FF210A401968FF2081430A4366
:104080001A602EE0874B1622BA181288D2B2013A73
:10409000D2B2FF210A4012021968834801400A4344
:1040A0001A601EE0814B1622BA181288D2B2013A69
:1040B000D2B2FF210A401968FF2081430A431A60E7
:1040C0000FE07A4B1622BA181288D2B2013AD2B255
:1040D000FF210A4012021968734801400A431A601E
:1040E000C0461923FB181B78102B1DD89A00704B63
:1040F000D3181B689F461923FB1804221A7013E07B
:104100001923FB1800221A700EE01923FB18012254
:104110001A7009E01923FB1802221A7004E019230F
:10412000FB1803221A70C046FB1D1B781022134097
:1041300016D03B689B689AB21E23FB18013A1A807E
:104140003B689B683A6852785343181C642100F01E
:10415000A9FF031C9AB21C23FB18013A1A8016E02F
:104160001E23FB181222BA181288013A1A80122351
:10417000FB181B883A6852785343181C642101F0DD
:1041800021F8031C9AB21C23FB18013A1A80FB1D6C
:104190001B780722134000D57CE0032B02DD072BA0
:1041A00078DC39E0434B434A1268F91D097807204F
:1041B0000140890007208840011CC9430A40192199
:1041C0007918097807200840F91D0978072421404B
:1041D00089008840011C0A431A60FB1D1B780722D6
:1041E0001A40131C5B009B189B00334A944663449F
:1041F0001E22BA1812881A60FB1D1B7807221A406B
:10420000131C5B009B189B002C4A944663441C22A1
:10421000BA1812881A603DE0294B294A1268F91D24
:104220000978072001400439890007208840011CD3
:10423000C9430A4019217918097807200840F91D57
:10424000097807242140043989008840011C0A4369
:104250001A60FB1D1B78072213401A1F131C5B00FA
:104260009B189B00174A944663441E22BA18128872
:104270001A60FB1D1B78072213401A1F131C5B00DA
:104280009B189B00104A944663441C22BA1812885B
:104290001A60C0467B6A181CBD460BB090BDC04674
:1042A000D457000000000440FF00FFFF000014404E
:1042B000F4570000040004400C00044010000440C7
:1042C000040014400C0014401000144080B582B06B
:1042D00000AF021C3960FB1D1A703B68002B3ED0FA
:1042E000FB1D1B78102213401DD0FB1D1B780422E0
:1042F00013400BD03C4B3C4A926FF91D097814399E
:1043000001208840011C0A439A676AE0374B374A0C
:10431000926FF91D09780720014001208840011C97
:104320000A439A675DE0FB1D1B78042213400BD003
:104330002F4B2F4A1268F91D097804390120884053
:10434000011C0A431A604CE02A4B2A4A1268F91DE4
:10435000097801208840011C0A431A6041E0FB1DD6
:104360001B78102213401FD0FB1D1B780422134022
:104370000CD01D4B1C4A926FF91D0978143901208D
:104380008840011CC9430A409A672AE0174B174A24
:10439000926FF91D09780720014001208840011C17
:1043A000C9430A409A671CE0FB1D1B780422134096
:1043B0000CD00F4B0E4A1268F91D09780439012000
:1043C0008840011CC9430A401A600AE0094B094AA7
:1043D0001268F91D097801208840011CC9430A4070
:1043E0001A60BD4602B080BD0000144000000440C9
:1043F0007C0014407C00044080B582B000AF021CF9
:10440000FB1D1A70BB1D0A1C1A70FB1D1B780722AE
:104410001340072B3ED89A00204BD3181B689F46A9
:104420001F4BBA1D127803210A40D2B203210A4061
:10443000120759691B4801400A435A612AE0184B88
:10444000BA1D127803210A40D2B292075969890035
:1044500089080A435A611DE0114BBA1D12780321E5
:104460000A40D2B203210A401201D96930208143A7
:104470000A43DA610EE00A4BBA1D127803210A40A2
:10448000D2B203210A409201D969C02081430A4374
:10449000DA61C046BD4602B080BDC0463858000053
:1044A00000020050FFFFFFCFB0B582B000AF051C87
:1044B0000C1C101C191CFB1D2A1C1A70BB1D221C75
:1044C0001A707B1D021C1A703B1D0A1C1A70FB1D02
:1044D0001B78072B00D999E29A00F04BD3181B6880
:1044E0009F46A023DB051A6B802149010A431A630A
:1044F000EB4BBA1D127803210A40D2B203210A40C5
:1045000012075969E74801400A435A61E44B9A6827
:10451000802149030A439A60E34B7A1D1278FF21F8
:104520000A401968FF2081430A431A60DE4B3A1D96
:10453000127807210A40D2B207210A4059680720A1
:1045400081430A435A60D84B9A6808210A439A600B
:10455000D54BD64ADA60D44BD44A1A61D24B9A680A
:1045600004218A439A60D04B9A6801210A439A60D9
:10457000CD4BDA6F01210A43DA6748E2A023DB055D
:104580001A6B802189010A431A63C54BBA1D127840
:1045900003210A40D2B203210A4012075969C148D7
:1045A00001400A435A61BE4B9A68802149030A437D
:1045B0009A60BD4B7A1D1278FF210A401968FF20CE
:1045C00081430A431A60B84B3A1D127807210A400A
:1045D000D2B207210A4012015968702081430A4370
:1045E0005A60B14B9A68802109010A439A60AE4B28
:1045F000AE4A9A61AC4BAD4ADA61AB4B9A68AC49B2
:104600000A409A60A84B9A68802149000A439A6040
:10461000A54BDA6F02210A43DA67F8E1A023DB0534
:104620001A6B8021C9010A431A639D4BBA1D127887
:1046300003210A40D2B292075969890089080A43C6
:104640005A61974B9A68802189030A439A60964B76
:104650007A1D1278FF210A4012021968954801401C
:104660000A431A60904B3A1D127807210A40D2B2D1
:1046700007210A40120259688F4801400A435A60D4
:10468000894B9A68802109030A439A60864B874ABE
:104690005A62854B854A9A62834B9A6887490A40D9
:1046A0009A60814B9A68802149020A439A607E4B46
:1046B000DA6F04210A43DA67A9E1A023DB051A6B4C
:1046C000802109020A431A63754BBA1D127803212F
:1046D0000A40D2B292075969890089080A435A618F
:1046E0006F4B9A68802189030A439A606E4B7A1D4A
:1046F0001278FF210A40120219686E4801400A43ED
:104700001A60694B3A1D127807210A40D2B207217C
:104710000A40120359686A4801400A435A60624BD2
:104720009A68802109050A439A605F4B5F4A1A63C1
:104730005D4B5E4A5A635C4B9A6862490A409A60D4
:10474000594B9A68802149040A439A60564BDA6FA4
:1047500008210A43DA675AE1A023DB055A6B80215E
:1047600009010A435A634E4BBA1D127803210A40CD
:10477000D2B203210A401201D969302081430A4391
:10478000DA61474B9A688021C9030A439A604E4B0D
:104790007A1D1278FF210A401968FF2081430A43DD
:1047A0001A60494B3A1D127807210A40D2B20721FC
:1047B0000A405968072081430A435A60424B9A686D
:1047C00008210A439A60404B384ADA603E4B374A28
:1047D0001A613D4B9A6804218A439A603A4B9A6861
:1047E00001210A439A60384BDA6F01210A43DA67E4
:1047F0000DE1A023DB051A6C20210A431A64284B23
:104800009A688021C9030A439A60254BBA1D127821
:1048100003210A40D2B203210A401201D969302093
:1048200081430A43DA611E4B9A688021C9030A4317
:104830009A60254B7A1D1278FF210A401968FF20E3
:1048400081430A431A60204B3A1D127807210A401F
:10485000D2B207210A4012015968702081430A43ED
:104860005A60194B9A68802109010A439A60164BD5
:104870000E4A9A61144B0D4ADA61134B9A680C493F
:104880000A409A60104B9A68802149000A439A6056
:104890000D4BDA6F02210A43DA67B8E0585800007E
:1048A00000020050FFFFFFCF00000440FFFF0000A8
:1048B000FFFBFFFFFF00FFFFFFF8FFFFFFFFFBFF16
:1048C000FF8FFFFFFFFFFFFB00001440A023DB056D
:1048D0001A6C01210A431A644E4BBA1D1278032147
:1048E0000A40D2B203210A409201D969C020814313
:1048F0000A43DA61474B9A68802109040A439A60A7
:10490000454B7A1D1278FF210A401202196843486C
:1049100001400A431A60404B3A1D127807210A40B1
:10492000D2B207210A40120259683D4801400A43A9
:104930005A60394B9A68802109030A439A60364BC2
:10494000384A5A62344B374A9A62334B9A6836492E
:104950000A409A60304B9A68802149020A439A6063
:104960002D4BDA6F04210A43DA6750E0A023DB0500
:104970001A6C02210A431A64264BBA1D12780321CD
:104980000A40D2B203210A409201D969C020814372
:104990000A43DA611F4B9A68802109040A439A602E
:1049A0001D4B7A1D1278FF210A40120219681B481C
:1049B00001400A431A60184B3A1D127807210A4039
:1049C000D2B207210A4012035968184801400A432D
:1049D0005A60114B9A68802109050A439A600E4B70
:1049E000104A1A630C4B0F4A5A630B4B9A681049D2
:1049F0000A409A60084B9A68802149040A439A60E9
:104A0000054BDA6F08210A43DA6700E0C046BD466D
:104A100002B0B0BD0002005000001440FF00FFFFD4
:104A2000FFF8FFFFFFFF0000FFFFFBFFFF8FFFFF0F
:104A3000FFFFFFFB80B582B000AF021CFB1D1A70A8
:104A4000FB1D1B78072B34D89A001C4BD3181B680E
:104A50009F461B4BDA6F01218A43DA672AE0184B25
:104A6000DA6F02218A43DA6724E0154BDA6F0421FA
:104A70008A43DA671EE0124BDA6F08218A43DA674D
:104A800018E0104BDA6F01218A43DA6712E00D4B10
:104A9000DA6F02218A43DA670CE00A4BDA6F0421ED
:104AA0008A43DA6706E0074BDA6F08218A43DA6740
:104AB00000E0C046BD4602B080BDC0467858000048
:104AC000000004400000144090B583B000AF041C07
:104AD000081C111CFB1D221C1A703B1D021C1A8095
:104AE000BB1C0A1C1A80FB1D1B78072B00D974E025
:104AF0009A003C4BD3181B689F463B4B3A1D1288CB
:104B0000DA60394BBA1C12881A61374BDA6F01210F
:104B10000A43DA6762E0344B3A1D12889A61324BDD
:104B2000BA1C1288DA61304BDA6F02210A43DA6765
:104B300054E02D4B3A1D12885A622B4BBA1C128836
:104B40009A62294BDA6F04210A43DA6746E0264B62
:104B50003A1D12881A63244BBA1C12885A63224BDE
:104B6000DA6F08210A43DA6738E0204B3A1D1288D1
:104B7000DA601E4BBA1C12881A611C4BDA6F0121D5
:104B80000A43DA672AE0194B3A1D12889A61174BDB
:104B9000BA1C1288DA61154BDA6F02210A43DA6710
:104BA0001CE0124B3A1D12885A62104BBA1C128834
:104BB0009A620E4BDA6F04210A43DA670EE00B4B60
:104BC0003A1D12881A63094BBA1C12885A63074BA4
:104BD000DA6F08210A43DA6700E0C046BD4603B039
:104BE00090BDC046985800000000044000001440EA
:104BF00080B500AF714B9A68802109020A439A6020
:104C0000A023DB05DA68802109020A43DA60A023C9
:104C1000DB05DA686A490A40DA60A023DB05DA6B53
:104C2000802149000A43DA63A023DB05DA6B802187
:104C300089000A43DA63A023DB05DA6B80210901CE
:104C40000A43DA635F4BDB681A68802109010A4373
:104C50001A605C4BDB681A68F8218A4348210A43D2
:104C60001A60584BDB681A6804210A431A60554BD6
:104C7000DB685A68120C120403210A435A60514B34
:104C8000DB689A6803218A4301210A439A604D4BED
:104C9000DB68EB221A624B4BDB681A6801210A437E
:104CA0001A60C046474BDB681B681A1C012313407F
:104CB000DBB2012BF6D0434BDB689A6803218A43B1
:104CC0009A60404BDB689A6803218A4301210A43BA
:104CD0009A603C4BDB6881221A623A4BDB681A68A7
:104CE00001210A431A60C046364BDB681B681A1C58
:104CF00001231340DBB2012BF6D0324BDB68A0223C
:104D00001A62304BDB681A6801210A431A60C046F8
:104D10002C4BDB681B681A1C01231340DBB2012BF0
:104D2000F6D0284BDB689A6803218A439A60254BAA
:104D3000DB689A6803218A4301210A439A60214B68
:104D4000DB68C0221A621F4BDB681A6801210A4324
:104D50001A60C0461B4BDB681B681A1C01231340FA
:104D6000DBB2012BF6D0174BDB689A6803218A432C
:104D70009A60144BDB689A6803218A4301210A4335
:104D80009A60104BDB68AF221A620E4BDB681A6820
:104D900001210A431A60C0460A4BDB681B681A1CD3
:104DA00001231340DBB2012BF6D0064BDB689A6877
:104DB00003218A439A60BD4680BDC0460002005070
:104DC000FF7FFFFF2006002080B582B000AF021CED
:104DD000FB1D1A70144BDB689A6803218A4301217A
:104DE0000A439A60104BDB68FA1D12788021490053
:104DF0000A431A620C4BDB681A6801210A431A60E5
:104E0000C046094BDB681B681A1C01231340DBB248
:104E1000012BF6D0044BDB689A6803218A439A6021
:104E2000BD4602B080BDC0462006002080B582B0DD
:104E300000AF021CFB1D1A70BB1D0A1C1A703C4BF4
:104E4000DB689A6803218A4301210A439A60384B40
:104E5000DB68FA1D1278502149420A43D2B21A6225
:104E6000334BDB681A6801210A431A60C046304B95
:104E7000DB681B681A1C01231340DBB2012BF6D040
:104E80002B4BDB689A6803218A439A60284BDB68C6
:104E90009A6803218A4301210A439A60244BDB6804
:104EA000BA1D12781209D2B2111C0F220A40102129
:104EB0000A431A621E4BDB681A6801210A431A6012
:104EC000C0461B4BDB681B681A1C01231340DBB276
:104ED000012BF6D0164BDB689A6803218A439A604F
:104EE000134BDB689A6803218A4301210A439A60C5
:104EF0000F4BDB68BA1D12780F210A401A620C4B67
:104F0000DB681A6801210A431A60C046084BDB6857
:104F10001B681A1C01231340DBB2012BF6D0044B93
:104F2000DB689A6803218A439A60BD4602B080BD5F
:104F30002006002090B587B000AF041C081C111C8F
:104F4000FB1D221C1A70BB1D021C1A707B1D0A1C43
:104F50001A7000237B6100233B617B1D1B78203B83
:104F60001B013B6100237B6124E0FB1D1B78DB18E8
:104F7000D9B2BB1D1B78082252425343DAB27B6977
:104F8000DBB2D31ADBB27F3BDBB2081C191CFFF784
:104F90004DFF3A697B69D2180F23FB1820498A5CC0
:104FA0001A700F23FB181B78181CFFF70DFF7B6985
:104FB00001337B617B69072BD7DD00237B6128E010
:104FC000FB1D1B78DB18DBB20133D9B2BB1D1B788C
:104FD000082252425343DAB27B69DBB2D31ADBB206
:104FE0007F3BDBB2081C191CFFF720FF3A697B6985
:104FF000D31808331A1C0F23FB1809498A5C1A704E
:105000000F23FB181B78181CFFF7DEFE7B690133AA
:105010007B617B69072BD3DDBD4607B090BDC046E1
:105020003000002080B584B000AF021C3960FB1D49
:105030001A700023FB60FB68D9B23B685A1C3A60C7
:105040001A78FB1D1B78181CFFF774FFFB680133EF
:10505000FB60FB680F2B00DD03E03B681B78002B37
:10506000E9D1BD4604B080BD80B582B000AF002359
:105070007B6000200021FFF7D9FE00237B6005E064
:105080000020FFF7A1FE7B6801337B607B68044A48
:105090009342F5DD0F20FFF797FEBD4602B080BDBD
:1050A0001F040000002243088B4274D303098B4283
:1050B0005FD3030A8B4244D3030B8B4228D3030CE8
:1050C0008B420DD3FF22090212BA030C8B4202D38A
:1050D0001212090265D0030B8B4219D300E0090AB2
:1050E000C30B8B4201D3CB03C01A5241830B8B42BB
:1050F00001D38B03C01A5241430B8B4201D34B03A4
:10510000C01A5241030B8B4201D30B03C01A524108
:10511000C30A8B4201D3CB02C01A5241830A8B428D
:1051200001D38B02C01A5241430A8B4201D34B0276
:10513000C01A5241030A8B4201D30B02C01A5241DA
:10514000CDD2C3098B4201D3CB01C01A524183098E
:105150008B4201D38B01C01A524143098B4201D3C8
:105160004B01C01A524103098B4201D30B01C01AF3
:105170005241C3088B4201D3CB00C01A524183086D
:105180008B4201D38B00C01A524143088B4201D39A
:105190004B00C01A5241411A00D2014652411046FA
:1051A0007047FFE701B5002000F0FCF802BDC046E3
:1051B0000029F7D003B5FFF775FF0EBC4243891AEB
:1051C0001847C04603460B437FD4002243088B4256
:1051D00074D303098B425FD3030A8B4244D3030B7E
:1051E0008B4228D3030C8B420DD3FF22090212BA43
:1051F000030C8B4202D31212090265D0030B8B42BF
:1052000019D300E0090AC30B8B4201D3CB03C01AA8
:105210005241830B8B4201D38B03C01A5241430B83
:105220008B4201D34B03C01A5241030B8B4201D373
:105230000B03C01A5241C30A8B4201D3CB02C01ADE
:105240005241830A8B4201D38B02C01A5241430A56
:105250008B4201D34B02C01A5241030A8B4201D345
:105260000B02C01A5241CDD2C3098B4201D3CB01EC
:10527000C01A524183098B4201D38B01C01A52419B
:1052800043098B4201D34B01C01A524103098B429F
:1052900001D30B01C01A5241C3088B4201D3CB008A
:1052A000C01A524183088B4201D38B00C01A52416D
:1052B00043088B4201D34B00C01A5241411A00D21D
:1052C00001465241104670475DE0CA0F00D0494286
:1052D000031000D34042534000229C4603098B42F6
:1052E0002DD3030A8B4212D3FC22890112BA030A7E
:1052F0008B420CD3890192118B4208D38901921100
:105300008B4204D389013AD0921100E08909C30984
:105310008B4201D3CB01C01A524183098B4201D386
:105320008B01C01A524143098B4201D34B01C01A71
:10533000524103098B4201D30B01C01A5241C308E9
:105340008B4201D3CB00C01A524183088B4201D358
:105350008B00C01A5241D9D243088B4201D34B0073
:10536000C01A5241411A00D20146634652415B10B5
:10537000104601D34042002B00D549427047634696
:105380005B1000D3404201B5002000F00BF802BDD5
:105390000029F8D003B5FFF715FF0EBC4243891A68
:1053A0001847C0467047C0464C4452203D2000007C
:1053B0002C1500004C150000761500008615000025
:1053C000A2150000CC150000DA150000DA15000067
:1053D00018160000321600004E1600005C16000081
:1053E0007816000094160000A4160000B216000003
:1053F000D8160000E6160000F6160000121700008E
:1054000022170000301700003E170000641700004C
:1054100058170000581700005817000058170000D0
:1054200058170000581700004C1700007C170000A8
:1054300088170000A0170000B0170000CC1700006C
:10544000E817000004180000221800003E180000B1
:105450005A18000076180000761800007618000030
:105460007618000076180000761800005019000029
:10547000601900009C190000081A00006C1A000056
:1054800060190000601900009C1900009C190000C0
:10549000081A0000081A00006C1A00006C1A0000BC
:1054A000DC1A0000A81A0000681D00004A1D000058
:1054B0002C1D00000E1D0000F01C0000D21C00007E
:1054C000B41C0000961C00007C1C0000241C000082
:1054D000061C00005E1C0000401C000001000000D3
:1054E000020000000200000004000000FE1E000098
:1054F0000E1F0000201F0000321F0000441F00008C
:1055000070260000EA2600006C270000E627000055
:1055100068280000E228000064290000282A000012
:10552000AA2A0000AA2A0000AA2A0000AA2A00002B
:10553000AA2A0000AA2A0000AA2A0000AA2A00001B
:1055400082260000FC2600007E270000F8270000CD
:105550007A280000F4280000762900003A2A00008A
:10556000242B00003C2B0000542B00006C2B00006F
:10557000842B00009C2B0000B42B0000CC2B0000DF
:10558000342D0000342D0000342D0000342D000097
:10559000342D0000342D0000342D0000342D000087
:1055A000E42B00000E2C0000382C0000622C0000C0
:1055B0008C2C0000B62C0000E02C00000A2D00000E
:1055C0009C2D00009C2D00009C2D00009C2D0000B7
:1055D000AC2D0000AC2D0000AC2D0000AC2D000067
:1055E000DE2E0000DE2E0000DE2E0000DE2E00008B
:1055F000DE2E0000DE2E0000DE2E0000DE2E00007B
:10560000BE2D0000E22D0000062E00002A2E000014
:105610004E2E0000722E0000962E0000BA2E0000C2
:10562000322F0000322F0000322F0000322F0000F6
:105630004C2F00004C2F00004C2F00004C2F00007E
:10564000F82F0000F82F0000F82F0000F82F0000BE
:10565000F82F0000F82F0000F82F0000F82F0000AE
:10566000682F00007A2F00008C2F00009E2F000072
:10567000B02F0000C22F0000D42F0000E62F000042
:10568000443000006E30000098300000C23000004E
:10569000EC30000016310000403100006A3100009B
:1056A000DE31000002320000263200004A320000E3
:1056B0006E32000092320000B6320000DA32000092
:1056C000163300003A3300005E33000082330000DE
:1056D000A6330000CA330000EE330000123400008D
:1056E000DE340000DE340000143500001435000004
:1056F00046350000463500007C3500007C35000052
:1057000080360000AC360000DC36000008370000B0
:10571000383700006437000094370000C0370000BD
:1057200054380000543800006A3800006A3800001D
:105730007A3800007A380000903800009038000075
:10574000F2380000F2380000F2380000F2380000B1
:105750002A3900002A3900002A3900002A390000BD
:10576000D43B0000D43B0000D43B0000D43B0000FD
:10577000D43B0000D43B0000D43B0000D43B0000ED
:1057800066390000AA390000F2390000363A0000FC
:105790007E3A0000C23A00000A3B00004E3B000087
:1057A000943C0000943C0000AA3C0000AA3C00008D
:1057B000C23C0000C23C0000D83C0000D83C0000C5
:1057C000263E0000303E00003A3E0000443E00000D
:1057D0001C3E00006640000066400000844000005F
:1057E00084400000A4400000A4400000C24000002B
:1057F000C240000028410000F640000000410000C7
:10580000284100000A410000284100002841000012
:1058100028410000144100002841000028410000F8
:1058200028410000284100002841000028410000D4
:10583000284100001E4100002044000020440000D8
:105840003E4400003E44000058440000584400001C
:105850007644000076440000E24400007C450000ED
:105860001C460000BA46000058470000F2470000FE
:10587000CC4800006C490000524A00005E4A00001B
:105880006A4A0000764A0000824A00008E4A000000
:105890009A4A0000A64A0000FA4A0000164B00008F
:1058A000324B00004E4B00006A4B0000864B00005C
:0858B000A24B0000BE4B0000FA
:1058B8000080510116000000001BB70000800000A6
:1058C80000805101102700000080510100000340B2
:1058D8000040034000001340004013400100000056
:1058E80000000000000000000000000000000000B0
:1058F800F000000000000000CF00000000000000E1
:105908000000000000000000F00000F000000000AF
:10591800000000C030C03000C839CF390F0901007D
:10592800E01010F810106000304142FF4244380087
:10593800C02010E020E0180001C2310C7388443800
:1059480000E01010E00000007885828D70A29E4271
:105958000000000000000000F0000000000000004F
:10596800C0300804000000001F6080000000000034
:10597800040830C0000000000080601F0000000024
:1059880000000000000000004428FE284400000039
:105998000000008000000000080808FF0808080050
:1059A8000000000000000000B070000000000000CF
:1059B80000000000000000008080808000000000DF
:1059C8000000000000000000C0C00000000000004F
:1059D8000000807000000000E01C030000000000D0
:1059E800C020101020C000003F408080403F0000D1
:1059F80020F000000000000080FF80000000000090
:105A08006010101020C00000C0A0908886C100005F
:105A180020101010E00000008080828344380000CD
:105A280000008060F000000018161110FF10000040
:105A380000F010101010000080818181423C0000AD
:105A480080402010101000003F428181423C00003D
:105A580070101010907000000000E01C030000009F
:105A6800C020101020C00000384582824538000050
:105A7800C020101020C0000083848848241F000024
:105A88000000000000000000C3C300000000000088
:105A9800C0C0000000000000B0700000000000005E
:105AA8000000000000000000102828444482000084
:105AB800000000000000000088888888888888889E
:105AC8000000000000000000824444282810000064
